{
  "contractName": "Tkn3blksNFTv2",
  "abi": [
    {
      "anonymous": false,
      "inputs": [
        {
          "indexed": true,
          "internalType": "address",
          "name": "account",
          "type": "address"
        }
      ],
      "name": "AddedToBlacklist",
      "type": "event"
    },
    {
      "anonymous": false,
      "inputs": [
        {
          "indexed": true,
          "internalType": "address",
          "name": "account",
          "type": "address"
        }
      ],
      "name": "AddedToWhitelist",
      "type": "event"
    },
    {
      "anonymous": false,
      "inputs": [
        {
          "indexed": true,
          "internalType": "address",
          "name": "account",
          "type": "address"
        },
        {
          "indexed": true,
          "internalType": "address",
          "name": "operator",
          "type": "address"
        },
        {
          "indexed": false,
          "internalType": "bool",
          "name": "approved",
          "type": "bool"
        }
      ],
      "name": "ApprovalForAll",
      "type": "event"
    },
    {
      "anonymous": false,
      "inputs": [
        {
          "indexed": true,
          "internalType": "address",
          "name": "previousOwner",
          "type": "address"
        },
        {
          "indexed": true,
          "internalType": "address",
          "name": "newOwner",
          "type": "address"
        }
      ],
      "name": "OwnershipTransferred",
      "type": "event"
    },
    {
      "anonymous": false,
      "inputs": [
        {
          "indexed": false,
          "internalType": "address",
          "name": "account",
          "type": "address"
        }
      ],
      "name": "Paused",
      "type": "event"
    },
    {
      "anonymous": false,
      "inputs": [
        {
          "indexed": true,
          "internalType": "address",
          "name": "account",
          "type": "address"
        }
      ],
      "name": "RemovedFromBlacklist",
      "type": "event"
    },
    {
      "anonymous": false,
      "inputs": [
        {
          "indexed": true,
          "internalType": "address",
          "name": "account",
          "type": "address"
        }
      ],
      "name": "RemovedFromWhitelist",
      "type": "event"
    },
    {
      "anonymous": false,
      "inputs": [
        {
          "indexed": true,
          "internalType": "bytes32",
          "name": "role",
          "type": "bytes32"
        },
        {
          "indexed": true,
          "internalType": "bytes32",
          "name": "previousAdminRole",
          "type": "bytes32"
        },
        {
          "indexed": true,
          "internalType": "bytes32",
          "name": "newAdminRole",
          "type": "bytes32"
        }
      ],
      "name": "RoleAdminChanged",
      "type": "event"
    },
    {
      "anonymous": false,
      "inputs": [
        {
          "indexed": true,
          "internalType": "bytes32",
          "name": "role",
          "type": "bytes32"
        },
        {
          "indexed": true,
          "internalType": "address",
          "name": "account",
          "type": "address"
        },
        {
          "indexed": true,
          "internalType": "address",
          "name": "sender",
          "type": "address"
        }
      ],
      "name": "RoleGranted",
      "type": "event"
    },
    {
      "anonymous": false,
      "inputs": [
        {
          "indexed": true,
          "internalType": "bytes32",
          "name": "role",
          "type": "bytes32"
        },
        {
          "indexed": true,
          "internalType": "address",
          "name": "account",
          "type": "address"
        },
        {
          "indexed": true,
          "internalType": "address",
          "name": "sender",
          "type": "address"
        }
      ],
      "name": "RoleRevoked",
      "type": "event"
    },
    {
      "anonymous": false,
      "inputs": [
        {
          "indexed": true,
          "internalType": "address",
          "name": "operator",
          "type": "address"
        },
        {
          "indexed": true,
          "internalType": "address",
          "name": "from",
          "type": "address"
        },
        {
          "indexed": true,
          "internalType": "address",
          "name": "to",
          "type": "address"
        },
        {
          "indexed": false,
          "internalType": "uint256[]",
          "name": "ids",
          "type": "uint256[]"
        },
        {
          "indexed": false,
          "internalType": "uint256[]",
          "name": "values",
          "type": "uint256[]"
        }
      ],
      "name": "TransferBatch",
      "type": "event"
    },
    {
      "anonymous": false,
      "inputs": [
        {
          "indexed": true,
          "internalType": "address",
          "name": "operator",
          "type": "address"
        },
        {
          "indexed": true,
          "internalType": "address",
          "name": "from",
          "type": "address"
        },
        {
          "indexed": true,
          "internalType": "address",
          "name": "to",
          "type": "address"
        },
        {
          "indexed": false,
          "internalType": "uint256",
          "name": "id",
          "type": "uint256"
        },
        {
          "indexed": false,
          "internalType": "uint256",
          "name": "value",
          "type": "uint256"
        }
      ],
      "name": "TransferSingle",
      "type": "event"
    },
    {
      "anonymous": false,
      "inputs": [
        {
          "indexed": false,
          "internalType": "string",
          "name": "value",
          "type": "string"
        },
        {
          "indexed": true,
          "internalType": "uint256",
          "name": "id",
          "type": "uint256"
        }
      ],
      "name": "URI",
      "type": "event"
    },
    {
      "anonymous": false,
      "inputs": [
        {
          "indexed": false,
          "internalType": "address",
          "name": "account",
          "type": "address"
        }
      ],
      "name": "Unpaused",
      "type": "event"
    },
    {
      "inputs": [],
      "name": "DEFAULT_ADMIN_ROLE",
      "outputs": [
        {
          "internalType": "bytes32",
          "name": "",
          "type": "bytes32"
        }
      ],
      "stateMutability": "view",
      "type": "function",
      "constant": true
    },
    {
      "inputs": [],
      "name": "MINTER_ROLE",
      "outputs": [
        {
          "internalType": "bytes32",
          "name": "",
          "type": "bytes32"
        }
      ],
      "stateMutability": "view",
      "type": "function",
      "constant": true
    },
    {
      "inputs": [],
      "name": "PAUSER_ROLE",
      "outputs": [
        {
          "internalType": "bytes32",
          "name": "",
          "type": "bytes32"
        }
      ],
      "stateMutability": "view",
      "type": "function",
      "constant": true
    },
    {
      "inputs": [
        {
          "internalType": "address",
          "name": "_address",
          "type": "address"
        }
      ],
      "name": "add",
      "outputs": [],
      "stateMutability": "nonpayable",
      "type": "function"
    },
    {
      "inputs": [
        {
          "internalType": "address",
          "name": "_address",
          "type": "address"
        }
      ],
      "name": "addtowh",
      "outputs": [],
      "stateMutability": "nonpayable",
      "type": "function"
    },
    {
      "inputs": [
        {
          "internalType": "address",
          "name": "account",
          "type": "address"
        },
        {
          "internalType": "uint256",
          "name": "id",
          "type": "uint256"
        }
      ],
      "name": "balanceOf",
      "outputs": [
        {
          "internalType": "uint256",
          "name": "",
          "type": "uint256"
        }
      ],
      "stateMutability": "view",
      "type": "function",
      "constant": true
    },
    {
      "inputs": [
        {
          "internalType": "address[]",
          "name": "accounts",
          "type": "address[]"
        },
        {
          "internalType": "uint256[]",
          "name": "ids",
          "type": "uint256[]"
        }
      ],
      "name": "balanceOfBatch",
      "outputs": [
        {
          "internalType": "uint256[]",
          "name": "",
          "type": "uint256[]"
        }
      ],
      "stateMutability": "view",
      "type": "function",
      "constant": true
    },
    {
      "inputs": [
        {
          "internalType": "address",
          "name": "account",
          "type": "address"
        },
        {
          "internalType": "uint256",
          "name": "id",
          "type": "uint256"
        },
        {
          "internalType": "uint256",
          "name": "value",
          "type": "uint256"
        }
      ],
      "name": "burn",
      "outputs": [],
      "stateMutability": "nonpayable",
      "type": "function"
    },
    {
      "inputs": [
        {
          "internalType": "address",
          "name": "account",
          "type": "address"
        },
        {
          "internalType": "uint256[]",
          "name": "ids",
          "type": "uint256[]"
        },
        {
          "internalType": "uint256[]",
          "name": "values",
          "type": "uint256[]"
        }
      ],
      "name": "burnBatch",
      "outputs": [],
      "stateMutability": "nonpayable",
      "type": "function"
    },
    {
      "inputs": [
        {
          "internalType": "uint256",
          "name": "",
          "type": "uint256"
        }
      ],
      "name": "creators",
      "outputs": [
        {
          "internalType": "address",
          "name": "",
          "type": "address"
        }
      ],
      "stateMutability": "view",
      "type": "function",
      "constant": true
    },
    {
      "inputs": [
        {
          "internalType": "bytes32",
          "name": "role",
          "type": "bytes32"
        }
      ],
      "name": "getRoleAdmin",
      "outputs": [
        {
          "internalType": "bytes32",
          "name": "",
          "type": "bytes32"
        }
      ],
      "stateMutability": "view",
      "type": "function",
      "constant": true
    },
    {
      "inputs": [
        {
          "internalType": "bytes32",
          "name": "role",
          "type": "bytes32"
        },
        {
          "internalType": "uint256",
          "name": "index",
          "type": "uint256"
        }
      ],
      "name": "getRoleMember",
      "outputs": [
        {
          "internalType": "address",
          "name": "",
          "type": "address"
        }
      ],
      "stateMutability": "view",
      "type": "function",
      "constant": true
    },
    {
      "inputs": [
        {
          "internalType": "bytes32",
          "name": "role",
          "type": "bytes32"
        }
      ],
      "name": "getRoleMemberCount",
      "outputs": [
        {
          "internalType": "uint256",
          "name": "",
          "type": "uint256"
        }
      ],
      "stateMutability": "view",
      "type": "function",
      "constant": true
    },
    {
      "inputs": [
        {
          "internalType": "bytes32",
          "name": "role",
          "type": "bytes32"
        },
        {
          "internalType": "address",
          "name": "account",
          "type": "address"
        }
      ],
      "name": "grantRole",
      "outputs": [],
      "stateMutability": "nonpayable",
      "type": "function"
    },
    {
      "inputs": [
        {
          "internalType": "bytes32",
          "name": "role",
          "type": "bytes32"
        },
        {
          "internalType": "address",
          "name": "account",
          "type": "address"
        }
      ],
      "name": "hasRole",
      "outputs": [
        {
          "internalType": "bool",
          "name": "",
          "type": "bool"
        }
      ],
      "stateMutability": "view",
      "type": "function",
      "constant": true
    },
    {
      "inputs": [
        {
          "internalType": "address",
          "name": "account",
          "type": "address"
        },
        {
          "internalType": "address",
          "name": "operator",
          "type": "address"
        }
      ],
      "name": "isApprovedForAll",
      "outputs": [
        {
          "internalType": "bool",
          "name": "",
          "type": "bool"
        }
      ],
      "stateMutability": "view",
      "type": "function",
      "constant": true
    },
    {
      "inputs": [
        {
          "internalType": "address",
          "name": "_address",
          "type": "address"
        }
      ],
      "name": "isBlacklisted",
      "outputs": [
        {
          "internalType": "bool",
          "name": "",
          "type": "bool"
        }
      ],
      "stateMutability": "view",
      "type": "function",
      "constant": true
    },
    {
      "inputs": [
        {
          "internalType": "address",
          "name": "_address",
          "type": "address"
        }
      ],
      "name": "isWhitelisted",
      "outputs": [
        {
          "internalType": "bool",
          "name": "",
          "type": "bool"
        }
      ],
      "stateMutability": "view",
      "type": "function",
      "constant": true
    },
    {
      "inputs": [
        {
          "internalType": "address",
          "name": "to",
          "type": "address"
        },
        {
          "internalType": "uint256",
          "name": "id",
          "type": "uint256"
        },
        {
          "internalType": "uint256",
          "name": "amount",
          "type": "uint256"
        },
        {
          "internalType": "bytes",
          "name": "data",
          "type": "bytes"
        }
      ],
      "name": "mint",
      "outputs": [],
      "stateMutability": "nonpayable",
      "type": "function"
    },
    {
      "inputs": [
        {
          "internalType": "address",
          "name": "to",
          "type": "address"
        },
        {
          "internalType": "uint256[]",
          "name": "ids",
          "type": "uint256[]"
        },
        {
          "internalType": "uint256[]",
          "name": "amounts",
          "type": "uint256[]"
        },
        {
          "internalType": "bytes",
          "name": "data",
          "type": "bytes"
        }
      ],
      "name": "mintBatch",
      "outputs": [],
      "stateMutability": "nonpayable",
      "type": "function"
    },
    {
      "inputs": [],
      "name": "nonce",
      "outputs": [
        {
          "internalType": "uint256",
          "name": "",
          "type": "uint256"
        }
      ],
      "stateMutability": "view",
      "type": "function",
      "constant": true
    },
    {
      "inputs": [],
      "name": "owner",
      "outputs": [
        {
          "internalType": "address",
          "name": "",
          "type": "address"
        }
      ],
      "stateMutability": "view",
      "type": "function",
      "constant": true
    },
    {
      "inputs": [],
      "name": "pause",
      "outputs": [],
      "stateMutability": "nonpayable",
      "type": "function"
    },
    {
      "inputs": [],
      "name": "paused",
      "outputs": [
        {
          "internalType": "bool",
          "name": "",
          "type": "bool"
        }
      ],
      "stateMutability": "view",
      "type": "function",
      "constant": true
    },
    {
      "inputs": [
        {
          "internalType": "address",
          "name": "_address",
          "type": "address"
        }
      ],
      "name": "remove",
      "outputs": [],
      "stateMutability": "nonpayable",
      "type": "function"
    },
    {
      "inputs": [
        {
          "internalType": "address",
          "name": "_address",
          "type": "address"
        }
      ],
      "name": "removefromwh",
      "outputs": [],
      "stateMutability": "nonpayable",
      "type": "function"
    },
    {
      "inputs": [],
      "name": "renounceOwnership",
      "outputs": [],
      "stateMutability": "nonpayable",
      "type": "function"
    },
    {
      "inputs": [
        {
          "internalType": "bytes32",
          "name": "role",
          "type": "bytes32"
        },
        {
          "internalType": "address",
          "name": "account",
          "type": "address"
        }
      ],
      "name": "renounceRole",
      "outputs": [],
      "stateMutability": "nonpayable",
      "type": "function"
    },
    {
      "inputs": [
        {
          "internalType": "bytes32",
          "name": "role",
          "type": "bytes32"
        },
        {
          "internalType": "address",
          "name": "account",
          "type": "address"
        }
      ],
      "name": "revokeRole",
      "outputs": [],
      "stateMutability": "nonpayable",
      "type": "function"
    },
    {
      "inputs": [
        {
          "internalType": "address",
          "name": "operator",
          "type": "address"
        },
        {
          "internalType": "bool",
          "name": "approved",
          "type": "bool"
        }
      ],
      "name": "setApprovalForAll",
      "outputs": [],
      "stateMutability": "nonpayable",
      "type": "function"
    },
    {
      "inputs": [
        {
          "internalType": "bytes4",
          "name": "interfaceId",
          "type": "bytes4"
        }
      ],
      "name": "supportsInterface",
      "outputs": [
        {
          "internalType": "bool",
          "name": "",
          "type": "bool"
        }
      ],
      "stateMutability": "view",
      "type": "function",
      "constant": true
    },
    {
      "inputs": [
        {
          "internalType": "uint256",
          "name": "",
          "type": "uint256"
        }
      ],
      "name": "tokenURI",
      "outputs": [
        {
          "internalType": "string",
          "name": "",
          "type": "string"
        }
      ],
      "stateMutability": "view",
      "type": "function",
      "constant": true
    },
    {
      "inputs": [
        {
          "internalType": "address",
          "name": "newOwner",
          "type": "address"
        }
      ],
      "name": "transferOwnership",
      "outputs": [],
      "stateMutability": "nonpayable",
      "type": "function"
    },
    {
      "inputs": [],
      "name": "unpause",
      "outputs": [],
      "stateMutability": "nonpayable",
      "type": "function"
    },
    {
      "inputs": [
        {
          "internalType": "string",
          "name": "urii",
          "type": "string"
        }
      ],
      "name": "initialize",
      "outputs": [],
      "stateMutability": "nonpayable",
      "type": "function"
    },
    {
      "inputs": [
        {
          "internalType": "uint256",
          "name": "id",
          "type": "uint256"
        }
      ],
      "name": "uri",
      "outputs": [
        {
          "internalType": "string",
          "name": "",
          "type": "string"
        }
      ],
      "stateMutability": "view",
      "type": "function",
      "constant": true
    },
    {
      "inputs": [
        {
          "internalType": "uint256",
          "name": "_initialSupply",
          "type": "uint256"
        },
        {
          "internalType": "string",
          "name": "_uri",
          "type": "string"
        }
      ],
      "name": "create",
      "outputs": [
        {
          "internalType": "uint256",
          "name": "_id",
          "type": "uint256"
        }
      ],
      "stateMutability": "nonpayable",
      "type": "function"
    },
    {
      "inputs": [
        {
          "internalType": "uint256",
          "name": "_id",
          "type": "uint256"
        },
        {
          "internalType": "string",
          "name": "_uri",
          "type": "string"
        }
      ],
      "name": "setURI",
      "outputs": [],
      "stateMutability": "nonpayable",
      "type": "function"
    },
    {
      "inputs": [
        {
          "internalType": "address",
          "name": "_from",
          "type": "address"
        },
        {
          "internalType": "address",
          "name": "_to",
          "type": "address"
        },
        {
          "internalType": "uint256",
          "name": "id",
          "type": "uint256"
        },
        {
          "internalType": "uint256",
          "name": "amount",
          "type": "uint256"
        },
        {
          "internalType": "bytes",
          "name": "data",
          "type": "bytes"
        }
      ],
      "name": "safeTransferFrom",
      "outputs": [],
      "stateMutability": "nonpayable",
      "type": "function"
    },
    {
      "inputs": [
        {
          "internalType": "address",
          "name": "_from",
          "type": "address"
        },
        {
          "internalType": "address",
          "name": "_to",
          "type": "address"
        },
        {
          "internalType": "uint256[]",
          "name": "ids",
          "type": "uint256[]"
        },
        {
          "internalType": "uint256[]",
          "name": "amounts",
          "type": "uint256[]"
        },
        {
          "internalType": "bytes",
          "name": "data",
          "type": "bytes"
        }
      ],
      "name": "safeBatchTransferFrom",
      "outputs": [],
      "stateMutability": "nonpayable",
      "type": "function"
    }
  ],
  "bytecode": "0x608060405234801561001057600080fd5b50613a12806100206000396000f3fe608060405234801561001057600080fd5b50600436106101d75760003560e01c8062fdd58e146101dc5780630118fa491461020257806301ffc9a7146102155780630a3b0a4f146102385780630e89341c1461024d5780631f7fdffa1461026d578063248a9ca31461028057806329092d0e146102935780632eb2c2d6146102a65780632f2ff15d146102b957806336568abe146102cc5780633af32abf146102df5780633f4ba83a146102f25780634e1273f4146102fa5780635c975abb1461031a5780636b20c45414610326578063715018a614610339578063731133e9146103415780638456cb5914610354578063862440e21461035c5780638da5cb5b1461036f5780639010d07c1461038457806391d1485414610397578063a217fddf146103aa578063a22cb465146103b2578063affed0e0146103c5578063c87b56dd146103cf578063ca15c873146103e2578063cd53d08e146103f5578063d53913931461041f578063d547741f14610434578063d922354b14610447578063e63ab1e91461045a578063e82015ef1461046f578063e985e9c514610482578063f242432a146104be578063f2fde38b146104d1578063f5298aca146104e4578063f62d1888146104f7578063fe575a871461050a575b600080fd5b6101ef6101ea3660046127f2565b61051d565b6040519081526020015b60405180910390f35b6101ef61021036600461281c565b6105b9565b6102286102233660046128ad565b61066b565b60405190151581526020016101f9565b61024b6102463660046128ca565b610676565b005b61026061025b3660046128e5565b6106f2565b6040516101f9919061294e565b61024b61027b366004612aaa565b610723565b6101ef61028e3660046128e5565b610769565b61024b6102a13660046128ca565b61077e565b61024b6102b4366004612b42565b6107f7565b61024b6102c7366004612beb565b610971565b61024b6102da366004612beb565b610993565b6102286102ed3660046128ca565b610a11565b61024b610a30565b61030d610308366004612c17565b610ab0565b6040516101f99190612d1c565b61015f5460ff16610228565b61024b610334366004612d2f565b610bd9565b61024b610c1c565b61024b61034f366004612da2565b610c55565b61024b610c95565b61024b61036a366004612df6565b610d11565b610377610d84565b6040516101f99190612e32565b610377610392366004612e46565b610d93565b6102286103a5366004612beb565b610dab565b6101ef600081565b61024b6103c0366004612e68565b610dd6565b6101ef6101fa5481565b6102606103dd3660046128e5565b610de1565b6101ef6103f03660046128e5565b610e7c565b6103776104033660046128e5565b6101f9602052600090815260409020546001600160a01b031681565b6101ef6000805160206139bd83398151915281565b61024b610442366004612beb565b610e93565b61024b6104553660046128ca565b610eb0565b6101ef60008051602061399d83398151915281565b61024b61047d3660046128ca565b610f2c565b610228610490366004612ea4565b6001600160a01b03918216600090815260fc6020908152604080832093909416825291909152205460ff1690565b61024b6104cc366004612ece565b610fa5565b61024b6104df3660046128ca565b611115565b61024b6104f2366004612f32565b6111b5565b61024b610505366004612f65565b6111f8565b6102286105183660046128ca565b6112f9565b60006001600160a01b03831661058e5760405162461bcd60e51b815260206004820152602b60248201527f455243313135353a2062616c616e636520717565727920666f7220746865207a60448201526a65726f206164647265737360a81b60648201526084015b60405180910390fd5b50600081815260fb602090815260408083206001600160a01b03861684529091529020545b92915050565b60006101fa600081546105cb90612faf565b918290555060008181526101f96020908152604080832080546001600160a01b031916339081179091556101f883528184208185529092528083208890555192935091829060008051602061395d8339815191529061062d9086908a90612fc8565b60405180910390a48115610664578060008051602061397d833981519152848460405161065b929190612fd6565b60405180910390a25b9392505050565b60006105b382611318565b3361067f610d84565b6001600160a01b0316146106a55760405162461bcd60e51b815260040161058590613005565b6001600160a01b03811660008181526101f66020526040808220805460ff19166001179055517ff9b68063b051b82957fa193585681240904fed808db8b30fc5a2d2202c6ed6279190a250565b60606106fd82611358565b60405160200161070d919061303a565b6040516020818303038152906040529050919050565b61073b6000805160206139bd83398151915233610dab565b6107575760405162461bcd60e51b8152600401610585906130ce565b61076384848484611460565b50505050565b60009081526097602052604090206001015490565b33610787610d84565b6001600160a01b0316146107ad5760405162461bcd60e51b815260040161058590613005565b6001600160a01b03811660008181526101f66020526040808220805460ff19169055517f2b6bf71b58b3583add364b3d9060ebf8019650f65f5be35f5464b9cb3e4ba2d49190a250565b61015f5460ff161561081b5760405162461bcd60e51b815260040161058590613114565b3360008181526101f6602052604090205460ff161561084c5760405162461bcd60e51b81526004016105859061313e565b6001600160a01b03861660009081526101f66020526040902054869060ff16156108885760405162461bcd60e51b81526004016105859061313e565b6001600160a01b03861660009081526101f66020526040902054869060ff16156108c45760405162461bcd60e51b81526004016105859061313e565b6108cd87610a11565b6108e95760405162461bcd60e51b81526004016105859061316e565b6108f288610a11565b61090e5760405162461bcd60e51b8152600401610585906131ba565b610917876112f9565b156109345760405162461bcd60e51b815260040161058590613208565b61093d886112f9565b1561095a5760405162461bcd60e51b815260040161058590613250565b61096788888888886115b0565b5050505050505050565b61097a82610769565b6109848133611640565b61098e83836116a4565b505050565b6001600160a01b0381163314610a035760405162461bcd60e51b815260206004820152602f60248201527f416363657373436f6e74726f6c3a2063616e206f6e6c792072656e6f756e636560448201526e103937b632b9903337b91039b2b63360891b6064820152608401610585565b610a0d82826116c6565b5050565b6001600160a01b031660009081526101f5602052604090205460ff1690565b610a4860008051602061399d83398151915233610dab565b610aa65760405162461bcd60e51b815260206004820152603b602482015260008051602061393d83398151915260448201527a686176652070617573657220726f6c6520746f20756e706175736560281b6064820152608401610585565b610aae6116e8565b565b60608151835114610b155760405162461bcd60e51b815260206004820152602960248201527f455243313135353a206163636f756e747320616e6420696473206c656e677468604482015268040dad2e6dac2e8c6d60bb1b6064820152608401610585565b600083516001600160401b03811115610b3057610b30612961565b604051908082528060200260200182016040528015610b59578160200160208202803683370190505b50905060005b8451811015610bd157610ba4858281518110610b7d57610b7d61329a565b6020026020010151858381518110610b9757610b9761329a565b602002602001015161051d565b828281518110610bb657610bb661329a565b6020908102919091010152610bca81612faf565b9050610b5f565b509392505050565b6001600160a01b038316331480610bf55750610bf58333610490565b610c115760405162461bcd60e51b8152600401610585906132b0565b61098e838383611777565b33610c25610d84565b6001600160a01b031614610c4b5760405162461bcd60e51b815260040161058590613005565b610aae60006118f6565b610c6d6000805160206139bd83398151915233610dab565b610c895760405162461bcd60e51b8152600401610585906130ce565b61076384848484611948565b610cad60008051602061399d83398151915233610dab565b610d095760405162461bcd60e51b8152602060048201526039602482015260008051602061393d833981519152604482015278686176652070617573657220726f6c6520746f20706175736560381b6064820152608401610585565b610aae611a1c565b33610d1a610d84565b6001600160a01b031614610d405760405162461bcd60e51b815260040161058590613005565b60008281526101f760205260409020610d598282613379565b508160008051602061397d83398151915282604051610d78919061294e565b60405180910390a25050565b6033546001600160a01b031690565b600082815260c9602052604081206106649083611a76565b60009182526097602090815260408084206001600160a01b0393909316845291905290205460ff1690565b610a0d338383611a82565b6101f76020526000908152604090208054610dfb906132f9565b80601f0160208091040260200160405190810160405280929190818152602001828054610e27906132f9565b8015610e745780601f10610e4957610100808354040283529160200191610e74565b820191906000526020600020905b815481529060010190602001808311610e5757829003601f168201915b505050505081565b600081815260c9602052604081206105b390611b62565b610e9c82610769565b610ea68133611640565b61098e83836116c6565b33610eb9610d84565b6001600160a01b031614610edf5760405162461bcd60e51b815260040161058590613005565b6001600160a01b03811660008181526101f56020526040808220805460ff19166001179055517fa850ae9193f515cbae8d35e8925bd2be26627fc91bce650b8652ed254e9cab039190a250565b33610f35610d84565b6001600160a01b031614610f5b5760405162461bcd60e51b815260040161058590613005565b6001600160a01b03811660008181526101f56020526040808220805460ff19169055517fcdd2e9b91a56913d370075169cefa1602ba36be5301664f752192bb1709df7579190a250565b61015f5460ff1615610fc95760405162461bcd60e51b815260040161058590613114565b3360008181526101f6602052604090205460ff1615610ffa5760405162461bcd60e51b81526004016105859061313e565b6001600160a01b03861660009081526101f66020526040902054869060ff16156110365760405162461bcd60e51b81526004016105859061313e565b6001600160a01b03861660009081526101f66020526040902054869060ff16156110725760405162461bcd60e51b81526004016105859061313e565b61107b87610a11565b6110975760405162461bcd60e51b81526004016105859061316e565b6110a088610a11565b6110bc5760405162461bcd60e51b8152600401610585906131ba565b6110c5876112f9565b156110e25760405162461bcd60e51b815260040161058590613208565b6110eb886112f9565b156111085760405162461bcd60e51b815260040161058590613250565b6109678888888888611b6c565b3361111e610d84565b6001600160a01b0316146111445760405162461bcd60e51b815260040161058590613005565b6001600160a01b0381166111a95760405162461bcd60e51b815260206004820152602660248201527f4f776e61626c653a206e6577206f776e657220697320746865207a65726f206160448201526564647265737360d01b6064820152608401610585565b6111b2816118f6565b50565b6001600160a01b0383163314806111d157506111d18333610490565b6111ed5760405162461bcd60e51b8152600401610585906132b0565b61098e838383611bb1565b600054610100900460ff166112135760005460ff1615611217565b303b155b61127a5760405162461bcd60e51b815260206004820152602e60248201527f496e697469616c697a61626c653a20636f6e747261637420697320616c72656160448201526d191e481a5b9a5d1a585b1a5e995960921b6064820152608401610585565b600054610100900460ff1615801561129c576000805461ffff19166101011790555b6112a4611ca7565b6112ac611ca7565b6112b4611cde565b6112bc611d0d565b6112c582611d3d565b6112e433606e62a4d1c060405180602001604052806000815250611948565b8015610a0d576000805461ff00191690555050565b6001600160a01b031660009081526101f6602052604090205460ff1690565b60006001600160e01b03198216636cdb3d1360e11b148061134957506001600160e01b031982166303a24d0760e21b145b806105b357506105b382611d9f565b60608160000361137f5750506040805180820190915260018152600360fc1b602082015290565b8160005b81156113a9578061139381612faf565b91506113a29050600a8361344e565b9150611383565b6000816001600160401b038111156113c3576113c3612961565b6040519080825280601f01601f1916602001820160405280156113ed576020820181803683370190505b5090505b841561145857611402600183613462565b915061140f600a86613475565b61141a906030613489565b60f81b81838151811061142f5761142f61329a565b60200101906001600160f81b031916908160001a905350611451600a8661344e565b94506113f1565b949350505050565b6001600160a01b0384166114865760405162461bcd60e51b81526004016105859061349c565b81518351146114a75760405162461bcd60e51b8152600401610585906134dd565b336114b781600087878787611dc4565b60005b8451811015611553578381815181106114d5576114d561329a565b602002602001015160fb60008784815181106114f3576114f361329a565b602002602001015181526020019081526020016000206000886001600160a01b03166001600160a01b03168152602001908152602001600020600082825461153b9190613489565b9091555081905061154b81612faf565b9150506114ba565b50846001600160a01b031660006001600160a01b0316826001600160a01b031660008051602061391d8339815191528787604051611592929190613525565b60405180910390a46115a981600087878787611dda565b5050505050565b6001600160a01b0385163314806115cc57506115cc8533610490565b6116335760405162461bcd60e51b815260206004820152603260248201527f455243313135353a207472616e736665722063616c6c6572206973206e6f74206044820152711bdddb995c881b9bdc88185c1c1c9bdd995960721b6064820152608401610585565b6115a98585858585611f3e565b61164a8282610dab565b610a0d57611662816001600160a01b031660146120d1565b61166d8360206120d1565b60405160200161167e929190613553565b60408051601f198184030181529082905262461bcd60e51b82526105859160040161294e565b6116ae828261226c565b600082815260c96020526040902061098e90826122f2565b6116d08282612307565b600082815260c96020526040902061098e908261236e565b61015f5460ff166117325760405162461bcd60e51b815260206004820152601460248201527314185d5cd8589b194e881b9bdd081c185d5cd95960621b6044820152606401610585565b61015f805460ff191690557f5db9ee0a495bf2e6ff9c91a7834c1ba4fdd244a5e8aa4e537bd38aeae4b073aa335b60405161176d9190612e32565b60405180910390a1565b6001600160a01b03831661179d5760405162461bcd60e51b8152600401610585906135c2565b80518251146117be5760405162461bcd60e51b8152600401610585906134dd565b60003390506117e181856000868660405180602001604052806000815250611dc4565b60005b83518110156118a95760008482815181106118015761180161329a565b60200260200101519050600084838151811061181f5761181f61329a565b602090810291909101810151600084815260fb835260408082206001600160a01b038c1683529093529190912054909150818110156118705760405162461bcd60e51b815260040161058590613605565b600092835260fb602090815260408085206001600160a01b038b16865290915290922091039055806118a181612faf565b9150506117e4565b5060006001600160a01b0316846001600160a01b0316826001600160a01b031660008051602061391d83398151915286866040516118e8929190613525565b60405180910390a450505050565b603380546001600160a01b038381166001600160a01b0319831681179093556040519116919082907f8be0079c531659141344cd1fd0a4f28419497f9722a3daafe3b4186f6b6457e090600090a35050565b6001600160a01b03841661196e5760405162461bcd60e51b81526004016105859061349c565b3361198e8160008761197f88612383565b61198888612383565b87611dc4565b600084815260fb602090815260408083206001600160a01b0389168452909152812080548592906119c0908490613489565b92505081905550846001600160a01b031660006001600160a01b0316826001600160a01b031660008051602061395d8339815191528787604051611a05929190612fc8565b60405180910390a46115a9816000878787876123ce565b61015f5460ff1615611a405760405162461bcd60e51b815260040161058590613114565b61015f805460ff191660011790557f62e78cea01bee320cd4e420270b5ea74000d11b0c9f74754ebdbfc544b05a2586117603390565b60006106648383612489565b816001600160a01b0316836001600160a01b031603611af55760405162461bcd60e51b815260206004820152602960248201527f455243313135353a2073657474696e6720617070726f76616c20737461747573604482015268103337b91039b2b63360b91b6064820152608401610585565b6001600160a01b03838116600081815260fc6020908152604080832094871680845294825291829020805460ff191686151590811790915591519182527f17307eab39ab6107e8899845ad3d59bd9653f200f220920489ca2b5937696c31910160405180910390a3505050565b60006105b3825490565b6001600160a01b038516331480611b885750611b888533610490565b611ba45760405162461bcd60e51b8152600401610585906132b0565b6115a985858585856124b3565b6001600160a01b038316611bd75760405162461bcd60e51b8152600401610585906135c2565b33611c0681856000611be887612383565b611bf187612383565b60405180602001604052806000815250611dc4565b600083815260fb602090815260408083206001600160a01b038816845290915290205482811015611c495760405162461bcd60e51b815260040161058590613605565b600084815260fb602090815260408083206001600160a01b03808a168086529190935281842087860390559051909185169060008051602061395d83398151915290611c989089908990612fc8565b60405180910390a45050505050565b600054610100900460ff16611cce5760405162461bcd60e51b815260040161058590613649565b611cd6611cde565b610aae611d0d565b600054610100900460ff16611d055760405162461bcd60e51b815260040161058590613649565b611cd66125c5565b600054610100900460ff16611d345760405162461bcd60e51b815260040161058590613649565b610aae336118f6565b600054610100900460ff16611d645760405162461bcd60e51b815260040161058590613649565b611d6f6000336125ec565b611d876000805160206139bd833981519152336125ec565b6111b260008051602061399d833981519152336125ec565b60006001600160e01b03198216635a05180f60e01b14806105b357506105b3826125f6565b611dd286868686868661262b565b505050505050565b6001600160a01b0384163b15611dd25760405163bc197c8160e01b81526001600160a01b0385169063bc197c8190611e1e9089908990889088908890600401613694565b6020604051808303816000875af1925050508015611e59575060408051601f3d908101601f19168201909252611e56918101906136f2565b60015b611f0557611e6561370f565b806308c379a003611e9e5750611e7961372b565b80611e845750611ea0565b8060405162461bcd60e51b8152600401610585919061294e565b505b60405162461bcd60e51b815260206004820152603460248201527f455243313135353a207472616e7366657220746f206e6f6e20455243313135356044820152732932b1b2b4bb32b91034b6b83632b6b2b73a32b960611b6064820152608401610585565b6001600160e01b0319811663bc197c8160e01b14611f355760405162461bcd60e51b8152600401610585906137b4565b50505050505050565b8151835114611f5f5760405162461bcd60e51b8152600401610585906134dd565b6001600160a01b038416611f855760405162461bcd60e51b8152600401610585906137fc565b33611f94818787878787611dc4565b60005b845181101561207d576000858281518110611fb457611fb461329a565b602002602001015190506000858381518110611fd257611fd261329a565b602090810291909101810151600084815260fb835260408082206001600160a01b038e1683529093529190912054909150818110156120235760405162461bcd60e51b815260040161058590613841565b600083815260fb602090815260408083206001600160a01b038e8116855292528083208585039055908b16825281208054849290612062908490613489565b925050819055505050508061207690612faf565b9050611f97565b50846001600160a01b0316866001600160a01b0316826001600160a01b031660008051602061391d83398151915287876040516120bb929190613525565b60405180910390a4611dd2818787878787611dda565b606060006120e083600261388b565b6120eb906002613489565b6001600160401b0381111561210257612102612961565b6040519080825280601f01601f19166020018201604052801561212c576020820181803683370190505b509050600360fc1b816000815181106121475761214761329a565b60200101906001600160f81b031916908160001a905350600f60fb1b816001815181106121765761217661329a565b60200101906001600160f81b031916908160001a905350600061219a84600261388b565b6121a5906001613489565b90505b600181111561221d576f181899199a1a9b1b9c1cb0b131b232b360811b85600f16601081106121d9576121d961329a565b1a60f81b8282815181106121ef576121ef61329a565b60200101906001600160f81b031916908160001a90535060049490941c93612216816138aa565b90506121a8565b5083156106645760405162461bcd60e51b815260206004820181905260248201527f537472696e67733a20686578206c656e67746820696e73756666696369656e746044820152606401610585565b6122768282610dab565b610a0d5760008281526097602090815260408083206001600160a01b03851684529091529020805460ff191660011790556122ae3390565b6001600160a01b0316816001600160a01b0316837f2f8788117e7eff1d82e926ec794901d17c78024a50270940304540a733656f0d60405160405180910390a45050565b6000610664836001600160a01b038416612694565b6123118282610dab565b15610a0d5760008281526097602090815260408083206001600160a01b0385168085529252808320805460ff1916905551339285917ff6391f5c32d9c69d2a47ea670b442974b53935d1edc7fd64eb21e047a839171b9190a45050565b6000610664836001600160a01b0384166126e3565b604080516001808252818301909252606091600091906020808301908036833701905050905082816000815181106123bd576123bd61329a565b602090810291909101015292915050565b6001600160a01b0384163b15611dd25760405163f23a6e6160e01b81526001600160a01b0385169063f23a6e619061241290899089908890889088906004016138c1565b6020604051808303816000875af192505050801561244d575060408051601f3d908101601f1916820190925261244a918101906136f2565b60015b61245957611e6561370f565b6001600160e01b0319811663f23a6e6160e01b14611f355760405162461bcd60e51b8152600401610585906137b4565b60008260000182815481106124a0576124a061329a565b9060005260206000200154905092915050565b6001600160a01b0384166124d95760405162461bcd60e51b8152600401610585906137fc565b336124e981878761197f88612383565b600084815260fb602090815260408083206001600160a01b038a1684529091529020548381101561252c5760405162461bcd60e51b815260040161058590613841565b600085815260fb602090815260408083206001600160a01b038b811685529252808320878503905590881682528120805486929061256b908490613489565b92505081905550856001600160a01b0316876001600160a01b0316836001600160a01b031660008051602061395d83398151915288886040516125af929190612fc8565b60405180910390a4611f358288888888886123ce565b600054610100900460ff16610aae5760405162461bcd60e51b815260040161058590613649565b610a0d82826116a4565b60006001600160e01b03198216637965db0b60e01b14806105b357506301ffc9a760e01b6001600160e01b03198316146105b3565b61015f5460ff1615611dd25760405162461bcd60e51b815260206004820152602c60248201527f455243313135355061757361626c653a20746f6b656e207472616e736665722060448201526b1dda1a5b19481c185d5cd95960a21b6064820152608401610585565b60008181526001830160205260408120546126db575081546001818101845560008481526020808220909301849055845484825282860190935260409020919091556105b3565b5060006105b3565b600081815260018301602052604081205480156127cc576000612707600183613462565b855490915060009061271b90600190613462565b905081811461278057600086600001828154811061273b5761273b61329a565b906000526020600020015490508087600001848154811061275e5761275e61329a565b6000918252602080832090910192909255918252600188019052604090208390555b855486908061279157612791613906565b6001900381819060005260206000200160009055905585600101600086815260200190815260200160002060009055600193505050506105b3565b60009150506105b3565b80356001600160a01b03811681146127ed57600080fd5b919050565b6000806040838503121561280557600080fd5b61280e836127d6565b946020939093013593505050565b60008060006040848603121561283157600080fd5b8335925060208401356001600160401b038082111561284f57600080fd5b818601915086601f83011261286357600080fd5b81358181111561287257600080fd5b87602082850101111561288457600080fd5b6020830194508093505050509250925092565b6001600160e01b0319811681146111b257600080fd5b6000602082840312156128bf57600080fd5b813561066481612897565b6000602082840312156128dc57600080fd5b610664826127d6565b6000602082840312156128f757600080fd5b5035919050565b60005b83811015612919578181015183820152602001612901565b50506000910152565b6000815180845261293a8160208601602086016128fe565b601f01601f19169290920160200192915050565b6020815260006106646020830184612922565b634e487b7160e01b600052604160045260246000fd5b601f8201601f191681016001600160401b038111828210171561299c5761299c612961565b6040525050565b60006001600160401b038211156129bc576129bc612961565b5060051b60200190565b600082601f8301126129d757600080fd5b813560206129e4826129a3565b6040516129f18282612977565b83815260059390931b8501820192828101915086841115612a1157600080fd5b8286015b84811015612a2c5780358352918301918301612a15565b509695505050505050565b600082601f830112612a4857600080fd5b81356001600160401b03811115612a6157612a61612961565b604051612a78601f8301601f191660200182612977565b818152846020838601011115612a8d57600080fd5b816020850160208301376000918101602001919091529392505050565b60008060008060808587031215612ac057600080fd5b612ac9856127d6565b935060208501356001600160401b0380821115612ae557600080fd5b612af1888389016129c6565b94506040870135915080821115612b0757600080fd5b612b13888389016129c6565b93506060870135915080821115612b2957600080fd5b50612b3687828801612a37565b91505092959194509250565b600080600080600060a08688031215612b5a57600080fd5b612b63866127d6565b9450612b71602087016127d6565b935060408601356001600160401b0380821115612b8d57600080fd5b612b9989838a016129c6565b94506060880135915080821115612baf57600080fd5b612bbb89838a016129c6565b93506080880135915080821115612bd157600080fd5b50612bde88828901612a37565b9150509295509295909350565b60008060408385031215612bfe57600080fd5b82359150612c0e602084016127d6565b90509250929050565b60008060408385031215612c2a57600080fd5b82356001600160401b0380821115612c4157600080fd5b818501915085601f830112612c5557600080fd5b81356020612c62826129a3565b604051612c6f8282612977565b83815260059390931b8501820192828101915089841115612c8f57600080fd5b948201945b83861015612cb457612ca5866127d6565b82529482019490820190612c94565b96505086013592505080821115612cca57600080fd5b50612cd7858286016129c6565b9150509250929050565b600081518084526020808501945080840160005b83811015612d1157815187529582019590820190600101612cf5565b509495945050505050565b6020815260006106646020830184612ce1565b600080600060608486031215612d4457600080fd5b612d4d846127d6565b925060208401356001600160401b0380821115612d6957600080fd5b612d75878388016129c6565b93506040860135915080821115612d8b57600080fd5b50612d98868287016129c6565b9150509250925092565b60008060008060808587031215612db857600080fd5b612dc1856127d6565b9350602085013592506040850135915060608501356001600160401b03811115612dea57600080fd5b612b3687828801612a37565b60008060408385031215612e0957600080fd5b8235915060208301356001600160401b03811115612e2657600080fd5b612cd785828601612a37565b6001600160a01b0391909116815260200190565b60008060408385031215612e5957600080fd5b50508035926020909101359150565b60008060408385031215612e7b57600080fd5b612e84836127d6565b915060208301358015158114612e9957600080fd5b809150509250929050565b60008060408385031215612eb757600080fd5b612ec0836127d6565b9150612c0e602084016127d6565b600080600080600060a08688031215612ee657600080fd5b612eef866127d6565b9450612efd602087016127d6565b9350604086013592506060860135915060808601356001600160401b03811115612f2657600080fd5b612bde88828901612a37565b600080600060608486031215612f4757600080fd5b612f50846127d6565b95602085013595506040909401359392505050565b600060208284031215612f7757600080fd5b81356001600160401b03811115612f8d57600080fd5b61145884828501612a37565b634e487b7160e01b600052601160045260246000fd5b600060018201612fc157612fc1612f99565b5060010190565b918252602082015260400190565b60208152816020820152818360408301376000818301604090810191909152601f909201601f19160101919050565b6020808252818101527f4f776e61626c653a2063616c6c6572206973206e6f7420746865206f776e6572604082015260600190565b7f68747470733a2f2f676174657761792e70696e6174612e636c6f75642f69706681527f732f516d5843636d54686d6e6a545177687838614e395154576965777a3739416020820152706a683967755565386e5036614d7a51592f60781b6040820152600082516130b28160518501602087016128fe565b64173539b7b760d91b6051939091019283015250605601919050565b602080825260389082015260008051602061393d8339815191526040820152771a185d99481b5a5b9d195c881c9bdb19481d1bc81b5a5b9d60421b606082015260800190565b60208082526010908201526f14185d5cd8589b194e881c185d5cd95960821b604082015260600190565b6020808252601690820152751858d8dbdd5b9d081a5cc8189b1858dadb1a5cdd195960521b604082015260600190565b6020808252602c908201527f63616e6e6f74207472616e7366657220746f2061206e6f6e2077686974656c6960408201526b73746564206164647265737360a01b606082015260800190565b6020808252602e908201527f63616e6e6f74207472616e736665722066726f6d2061206e6f6e20776869746560408201526d6c6973746564206164647265737360901b606082015260800190565b60208082526028908201527f63616e6e6f74207472616e7366657220746f206120626c61636b6c6973746564604082015267206164647265737360c01b606082015260800190565b6020808252602a908201527f63616e6e6f74207472616e736665722066726f6d206120626c61636b6c6973746040820152696564206164647265737360b01b606082015260800190565b634e487b7160e01b600052603260045260246000fd5b60208082526029908201527f455243313135353a2063616c6c6572206973206e6f74206f776e6572206e6f7260408201526808185c1c1c9bdd995960ba1b606082015260800190565b600181811c9082168061330d57607f821691505b60208210810361332d57634e487b7160e01b600052602260045260246000fd5b50919050565b601f82111561098e57600081815260208120601f850160051c8101602086101561335a5750805b601f850160051c820191505b81811015611dd257828155600101613366565b81516001600160401b0381111561339257613392612961565b6133a6816133a084546132f9565b84613333565b602080601f8311600181146133db57600084156133c35750858301515b600019600386901b1c1916600185901b178555611dd2565b600085815260208120601f198616915b8281101561340a578886015182559484019460019091019084016133eb565b50858210156134285787850151600019600388901b60f8161c191681555b5050505050600190811b01905550565b634e487b7160e01b600052601260045260246000fd5b60008261345d5761345d613438565b500490565b818103818111156105b3576105b3612f99565b60008261348457613484613438565b500690565b808201808211156105b3576105b3612f99565b60208082526021908201527f455243313135353a206d696e7420746f20746865207a65726f206164647265736040820152607360f81b606082015260800190565b60208082526028908201527f455243313135353a2069647320616e6420616d6f756e7473206c656e677468206040820152670dad2e6dac2e8c6d60c31b606082015260800190565b6040815260006135386040830185612ce1565b828103602084015261354a8185612ce1565b95945050505050565b76020b1b1b2b9b9a1b7b73a3937b61d1030b1b1b7bab73a1604d1b8152600083516135858160178501602088016128fe565b7001034b99036b4b9b9b4b733903937b6329607d1b60179184019182015283516135b68160288401602088016128fe565b01602801949350505050565b60208082526023908201527f455243313135353a206275726e2066726f6d20746865207a65726f206164647260408201526265737360e81b606082015260800190565b60208082526024908201527f455243313135353a206275726e20616d6f756e7420657863656564732062616c604082015263616e636560e01b606082015260800190565b6020808252602b908201527f496e697469616c697a61626c653a20636f6e7472616374206973206e6f74206960408201526a6e697469616c697a696e6760a81b606082015260800190565b6001600160a01b0386811682528516602082015260a0604082018190526000906136c090830186612ce1565b82810360608401526136d28186612ce1565b905082810360808401526136e68185612922565b98975050505050505050565b60006020828403121561370457600080fd5b815161066481612897565b600060033d11156137285760046000803e5060005160e01c5b90565b600060443d10156137395790565b6040516003193d81016004833e81513d6001600160401b03808311602484018310171561376857505050505090565b82850191508151818111156137805750505050505090565b843d870101602082850101111561379a5750505050505090565b6137a960208286010187612977565b509095945050505050565b60208082526028908201527f455243313135353a204552433131353552656365697665722072656a656374656040820152676420746f6b656e7360c01b606082015260800190565b60208082526025908201527f455243313135353a207472616e7366657220746f20746865207a65726f206164604082015264647265737360d81b606082015260800190565b6020808252602a908201527f455243313135353a20696e73756666696369656e742062616c616e636520666f60408201526939103a3930b739b332b960b11b606082015260800190565b60008160001904831182151516156138a5576138a5612f99565b500290565b6000816138b9576138b9612f99565b506000190190565b6001600160a01b03868116825285166020820152604081018490526060810183905260a0608082018190526000906138fb90830184612922565b979650505050505050565b634e487b7160e01b600052603160045260246000fdfe4a39dc06d4c0dbc64b70af90fd698a233a518aa5d07e595d983b8c0526c8f7fb455243313135355072657365744d696e7465725061757365723a206d75737420c3d58168c5ae7397731d063d5bbf3d657854427343f4c083240f7aacaa2d0f626bb7ff708619ba0610cba295a58592e0451dee2622938c8755667688daf3529b65d7a28e3265b37a6474929f336521b332c1681b933f6cb9f3376673440d862a9f2df0fed2c77648de5860a4cc508cd0818c85b8b8a1ab4ceeef8d981c8956a6a264697066735822122044b9b2d5c7785c06c305dee5b033c4b3c95777c70b0506274b192ff63991633e64736f6c63430008100033",
  "immutableReferences": {},
  "source": "// SPDX-License-Identifier: MIT\r\npragma solidity ^0.8.0;\r\nimport \"@openzeppelin/contracts-upgradeable/proxy/utils/Initializable.sol\";\r\nimport \"@openzeppelin/contracts-upgradeable/utils/StringsUpgradeable.sol\";\r\nimport \"@openzeppelin/contracts-upgradeable/access/OwnableUpgradeable.sol\";\r\nimport \"@openzeppelin/contracts-upgradeable/token/ERC1155/presets/ERC1155PresetMinterPauserUpgradeable.sol\";\r\nimport \"./Whitelist.sol\";\r\nimport \"./Blacklist.sol\";\r\n// import \"./ERC1155Mintable.sol\";\r\nimport \"./ExternalLibraries.sol\";\r\n//this is a staging test\r\n//this is another staging tests aug 12, 2022\r\n\r\ncontract Tkn3blksNFTv2 is Initializable, OwnableUpgradeable, ERC1155PresetMinterPauserUpgradeable, Whitelist, Blacklist\r\n{\r\n  using SafeMath for uint256;\r\n  mapping(uint => string) public tokenURI;\r\n  mapping(uint256 => mapping(address => uint256)) private _balances;\r\n\r\n\r\n    // id => creators\r\n    mapping (uint256 => address) public creators;\r\n\r\n    // A nonce to ensure we have a unique id each time we mint.\r\n    uint256 public nonce;\r\n\r\n    modifier creatorOnly(uint256 _id) {\r\n        require(creators[_id] == msg.sender);\r\n        _;\r\n    }\r\n  \r\n function initialize(string memory urii) public virtual override initializer ()\r\n        { \r\n            __Whitelist_init();\r\n            __Blacklist_init();\r\n            __Ownable_init();\r\n            __Ownable_init_unchained();\r\n            __ERC1155PresetMinterPauser_init_unchained(urii);\r\n            // _mint(msg.sender,101,200,\"\");\r\n            // _mint(msg.sender,103,2600,\"\");\r\n            // _mint(msg.sender,104,4800,\"\");\r\n            // _mint(msg.sender,105,217600,\"\");\r\n            // _mint(msg.sender,106,10801600,\"\");  \r\n            _mint(msg.sender,110,10801600,\"\");               \r\n        }\r\n\r\n  function uri(uint256 id) public view virtual override returns (string memory) {\r\n        return string(\r\n          abi.encodePacked (\r\n          // \"https://gateway.pinata.cloud/ipfs/QmQ1xP9sXKcJjNEEAtbCULV6PFwftrxi28ww5snL85rbE4/\",\r\n          \"https://gateway.pinata.cloud/ipfs/QmXCcmThmnjTQwhx8aN9QTWiewz79Ajh9guUe8nP6aMzQY/\",\r\n           StringsUpgradeable.toString(id),\r\n          \".json\"\r\n          )\r\n        );\r\n   }\r\n\r\n\r\n // Creates a new token type and assings _initialSupply to minter\r\n    function create(uint256 _initialSupply, string calldata _uri) external returns(uint256 _id) {\r\n\r\n        _id = ++nonce;\r\n        creators[_id] = msg.sender;\r\n        _balances[_id][msg.sender] = _initialSupply;\r\n\r\n        // Transfer event with mint semantic\r\n        emit TransferSingle(msg.sender, address(0x0), msg.sender, _id, _initialSupply);\r\n\r\n        if (bytes(_uri).length > 0)\r\n            emit URI(_uri, _id);\r\n    }\r\n\r\n function setURI(uint _id, string memory _uri) external onlyOwner {\r\n    tokenURI[_id] = _uri;\r\n    emit URI(_uri, _id);\r\n  }\r\n\r\n function safeTransferFrom(address _from, address _to, uint256 id, uint256 amount, bytes memory data) whenNotPaused()  notBlacklisted(msg.sender) \r\n        notBlacklisted(_from) notBlacklisted(_to) public virtual override\r\n  {\r\n        require(isWhitelisted(_to), 'cannot transfer to a non whitelisted address'); \r\n        require(isWhitelisted(_from), 'cannot transfer from a non whitelisted address'); \r\n        require(!isBlacklisted(_to), 'cannot transfer to a blacklisted address');\r\n        require(!isBlacklisted(_from), 'cannot transfer from a blacklisted address');\r\n        return super.safeTransferFrom(_from, _to, id, amount, data);\r\n  }\r\n   \r\n  function safeBatchTransferFrom(address _from, address _to, uint256[] memory ids,uint256[] memory amounts, bytes memory data) whenNotPaused() \r\n           notBlacklisted(msg.sender) notBlacklisted(_from) notBlacklisted(_to) public virtual override\r\n  {\r\n    \r\n        require(isWhitelisted(_to), 'cannot transfer to a non whitelisted address'); \r\n        require(isWhitelisted(_from), 'cannot transfer from a non whitelisted address');  \r\n        require(!isBlacklisted(_to), 'cannot transfer to a blacklisted address');\r\n        require(!isBlacklisted(_from), 'cannot transfer from a blacklisted address');\r\n        return super.safeBatchTransferFrom(_from, _to, ids, amounts, data);\r\n  }\r\n}",
  "sourcePath": "/codebuild/output/src039/src/s3/00/contracts/polygon/Tkn3blksNFTv2.sol",
  "compiler": {
    "name": "solc",
    "version": "0.8.16+commit.07a7930e.Emscripten.clang"
  },
  "schemaVersion": "3.4.9",
  "updatedAt": "2022-09-02T10:28:50.167Z",
  "networkType": "ethereum",
  "devdoc": {
    "kind": "dev",
    "methods": {
      "balanceOf(address,uint256)": {
        "details": "See {IERC1155-balanceOf}. Requirements: - `account` cannot be the zero address."
      },
      "balanceOfBatch(address[],uint256[])": {
        "details": "See {IERC1155-balanceOfBatch}. Requirements: - `accounts` and `ids` must have the same length."
      },
      "getRoleAdmin(bytes32)": {
        "details": "Returns the admin role that controls `role`. See {grantRole} and {revokeRole}. To change a role's admin, use {_setRoleAdmin}."
      },
      "getRoleMember(bytes32,uint256)": {
        "details": "Returns one of the accounts that have `role`. `index` must be a value between 0 and {getRoleMemberCount}, non-inclusive. Role bearers are not sorted in any particular way, and their ordering may change at any point. WARNING: When using {getRoleMember} and {getRoleMemberCount}, make sure you perform all queries on the same block. See the following https://forum.openzeppelin.com/t/iterating-over-elements-on-enumerableset-in-openzeppelin-contracts/2296[forum post] for more information."
      },
      "getRoleMemberCount(bytes32)": {
        "details": "Returns the number of accounts that have `role`. Can be used together with {getRoleMember} to enumerate all bearers of a role."
      },
      "grantRole(bytes32,address)": {
        "details": "Grants `role` to `account`. If `account` had not been already granted `role`, emits a {RoleGranted} event. Requirements: - the caller must have ``role``'s admin role."
      },
      "hasRole(bytes32,address)": {
        "details": "Returns `true` if `account` has been granted `role`."
      },
      "isApprovedForAll(address,address)": {
        "details": "See {IERC1155-isApprovedForAll}."
      },
      "mint(address,uint256,uint256,bytes)": {
        "details": "Creates `amount` new tokens for `to`, of token type `id`. See {ERC1155-_mint}. Requirements: - the caller must have the `MINTER_ROLE`."
      },
      "mintBatch(address,uint256[],uint256[],bytes)": {
        "details": "xref:ROOT:erc1155.adoc#batch-operations[Batched] variant of {mint}."
      },
      "owner()": {
        "details": "Returns the address of the current owner."
      },
      "pause()": {
        "details": "Pauses all token transfers. See {ERC1155Pausable} and {Pausable-_pause}. Requirements: - the caller must have the `PAUSER_ROLE`."
      },
      "paused()": {
        "details": "Returns true if the contract is paused, and false otherwise."
      },
      "renounceOwnership()": {
        "details": "Leaves the contract without owner. It will not be possible to call `onlyOwner` functions anymore. Can only be called by the current owner. NOTE: Renouncing ownership will leave the contract without an owner, thereby removing any functionality that is only available to the owner."
      },
      "renounceRole(bytes32,address)": {
        "details": "Revokes `role` from the calling account. Roles are often managed via {grantRole} and {revokeRole}: this function's purpose is to provide a mechanism for accounts to lose their privileges if they are compromised (such as when a trusted device is misplaced). If the calling account had been revoked `role`, emits a {RoleRevoked} event. Requirements: - the caller must be `account`."
      },
      "revokeRole(bytes32,address)": {
        "details": "Revokes `role` from `account`. If `account` had been granted `role`, emits a {RoleRevoked} event. Requirements: - the caller must have ``role``'s admin role."
      },
      "setApprovalForAll(address,bool)": {
        "details": "See {IERC1155-setApprovalForAll}."
      },
      "supportsInterface(bytes4)": {
        "details": "See {IERC165-supportsInterface}."
      },
      "transferOwnership(address)": {
        "details": "Transfers ownership of the contract to a new account (`newOwner`). Can only be called by the current owner."
      },
      "unpause()": {
        "details": "Unpauses all token transfers. See {ERC1155Pausable} and {Pausable-_unpause}. Requirements: - the caller must have the `PAUSER_ROLE`."
      }
    },
    "version": 1
  },
  "userdoc": {
    "kind": "user",
    "methods": {},
    "version": 1
  }
}