{
  "contractName": "Tkn3blksNFTv6",
  "abi": [
    {
      "anonymous": false,
      "inputs": [
        {
          "indexed": true,
          "internalType": "address",
          "name": "account",
          "type": "address"
        }
      ],
      "name": "AddedToBlacklist",
      "type": "event"
    },
    {
      "anonymous": false,
      "inputs": [
        {
          "indexed": true,
          "internalType": "address",
          "name": "account",
          "type": "address"
        }
      ],
      "name": "AddedToWhitelist",
      "type": "event"
    },
    {
      "anonymous": false,
      "inputs": [
        {
          "indexed": true,
          "internalType": "address",
          "name": "account",
          "type": "address"
        },
        {
          "indexed": true,
          "internalType": "address",
          "name": "operator",
          "type": "address"
        },
        {
          "indexed": false,
          "internalType": "bool",
          "name": "approved",
          "type": "bool"
        }
      ],
      "name": "ApprovalForAll",
      "type": "event"
    },
    {
      "anonymous": false,
      "inputs": [
        {
          "indexed": true,
          "internalType": "address",
          "name": "previousOwner",
          "type": "address"
        },
        {
          "indexed": true,
          "internalType": "address",
          "name": "newOwner",
          "type": "address"
        }
      ],
      "name": "OwnershipTransferred",
      "type": "event"
    },
    {
      "anonymous": false,
      "inputs": [
        {
          "indexed": false,
          "internalType": "address",
          "name": "account",
          "type": "address"
        }
      ],
      "name": "Paused",
      "type": "event"
    },
    {
      "anonymous": false,
      "inputs": [
        {
          "indexed": true,
          "internalType": "address",
          "name": "account",
          "type": "address"
        }
      ],
      "name": "RemovedFromBlacklist",
      "type": "event"
    },
    {
      "anonymous": false,
      "inputs": [
        {
          "indexed": true,
          "internalType": "address",
          "name": "account",
          "type": "address"
        }
      ],
      "name": "RemovedFromWhitelist",
      "type": "event"
    },
    {
      "anonymous": false,
      "inputs": [
        {
          "indexed": true,
          "internalType": "bytes32",
          "name": "role",
          "type": "bytes32"
        },
        {
          "indexed": true,
          "internalType": "bytes32",
          "name": "previousAdminRole",
          "type": "bytes32"
        },
        {
          "indexed": true,
          "internalType": "bytes32",
          "name": "newAdminRole",
          "type": "bytes32"
        }
      ],
      "name": "RoleAdminChanged",
      "type": "event"
    },
    {
      "anonymous": false,
      "inputs": [
        {
          "indexed": true,
          "internalType": "bytes32",
          "name": "role",
          "type": "bytes32"
        },
        {
          "indexed": true,
          "internalType": "address",
          "name": "account",
          "type": "address"
        },
        {
          "indexed": true,
          "internalType": "address",
          "name": "sender",
          "type": "address"
        }
      ],
      "name": "RoleGranted",
      "type": "event"
    },
    {
      "anonymous": false,
      "inputs": [
        {
          "indexed": true,
          "internalType": "bytes32",
          "name": "role",
          "type": "bytes32"
        },
        {
          "indexed": true,
          "internalType": "address",
          "name": "account",
          "type": "address"
        },
        {
          "indexed": true,
          "internalType": "address",
          "name": "sender",
          "type": "address"
        }
      ],
      "name": "RoleRevoked",
      "type": "event"
    },
    {
      "anonymous": false,
      "inputs": [
        {
          "indexed": true,
          "internalType": "address",
          "name": "operator",
          "type": "address"
        },
        {
          "indexed": true,
          "internalType": "address",
          "name": "from",
          "type": "address"
        },
        {
          "indexed": true,
          "internalType": "address",
          "name": "to",
          "type": "address"
        },
        {
          "indexed": false,
          "internalType": "uint256[]",
          "name": "ids",
          "type": "uint256[]"
        },
        {
          "indexed": false,
          "internalType": "uint256[]",
          "name": "values",
          "type": "uint256[]"
        }
      ],
      "name": "TransferBatch",
      "type": "event"
    },
    {
      "anonymous": false,
      "inputs": [
        {
          "indexed": true,
          "internalType": "address",
          "name": "operator",
          "type": "address"
        },
        {
          "indexed": true,
          "internalType": "address",
          "name": "from",
          "type": "address"
        },
        {
          "indexed": true,
          "internalType": "address",
          "name": "to",
          "type": "address"
        },
        {
          "indexed": false,
          "internalType": "uint256",
          "name": "id",
          "type": "uint256"
        },
        {
          "indexed": false,
          "internalType": "uint256",
          "name": "value",
          "type": "uint256"
        }
      ],
      "name": "TransferSingle",
      "type": "event"
    },
    {
      "anonymous": false,
      "inputs": [
        {
          "indexed": false,
          "internalType": "string",
          "name": "value",
          "type": "string"
        },
        {
          "indexed": true,
          "internalType": "uint256",
          "name": "id",
          "type": "uint256"
        }
      ],
      "name": "URI",
      "type": "event"
    },
    {
      "anonymous": false,
      "inputs": [
        {
          "indexed": false,
          "internalType": "address",
          "name": "account",
          "type": "address"
        }
      ],
      "name": "Unpaused",
      "type": "event"
    },
    {
      "inputs": [],
      "name": "DEFAULT_ADMIN_ROLE",
      "outputs": [
        {
          "internalType": "bytes32",
          "name": "",
          "type": "bytes32"
        }
      ],
      "stateMutability": "view",
      "type": "function",
      "constant": true
    },
    {
      "inputs": [],
      "name": "MINTER_ROLE",
      "outputs": [
        {
          "internalType": "bytes32",
          "name": "",
          "type": "bytes32"
        }
      ],
      "stateMutability": "view",
      "type": "function",
      "constant": true
    },
    {
      "inputs": [],
      "name": "PAUSER_ROLE",
      "outputs": [
        {
          "internalType": "bytes32",
          "name": "",
          "type": "bytes32"
        }
      ],
      "stateMutability": "view",
      "type": "function",
      "constant": true
    },
    {
      "inputs": [
        {
          "internalType": "address",
          "name": "_address",
          "type": "address"
        },
        {
          "internalType": "uint256[]",
          "name": "_ids",
          "type": "uint256[]"
        }
      ],
      "name": "add",
      "outputs": [],
      "stateMutability": "nonpayable",
      "type": "function"
    },
    {
      "inputs": [
        {
          "internalType": "address",
          "name": "_address",
          "type": "address"
        }
      ],
      "name": "addtowh",
      "outputs": [],
      "stateMutability": "nonpayable",
      "type": "function"
    },
    {
      "inputs": [
        {
          "internalType": "address",
          "name": "account",
          "type": "address"
        },
        {
          "internalType": "uint256",
          "name": "id",
          "type": "uint256"
        }
      ],
      "name": "balanceOf",
      "outputs": [
        {
          "internalType": "uint256",
          "name": "",
          "type": "uint256"
        }
      ],
      "stateMutability": "view",
      "type": "function",
      "constant": true
    },
    {
      "inputs": [
        {
          "internalType": "address[]",
          "name": "accounts",
          "type": "address[]"
        },
        {
          "internalType": "uint256[]",
          "name": "ids",
          "type": "uint256[]"
        }
      ],
      "name": "balanceOfBatch",
      "outputs": [
        {
          "internalType": "uint256[]",
          "name": "",
          "type": "uint256[]"
        }
      ],
      "stateMutability": "view",
      "type": "function",
      "constant": true
    },
    {
      "inputs": [
        {
          "internalType": "address",
          "name": "account",
          "type": "address"
        },
        {
          "internalType": "uint256",
          "name": "id",
          "type": "uint256"
        },
        {
          "internalType": "uint256",
          "name": "value",
          "type": "uint256"
        }
      ],
      "name": "burn",
      "outputs": [],
      "stateMutability": "nonpayable",
      "type": "function"
    },
    {
      "inputs": [
        {
          "internalType": "address",
          "name": "account",
          "type": "address"
        },
        {
          "internalType": "uint256[]",
          "name": "ids",
          "type": "uint256[]"
        },
        {
          "internalType": "uint256[]",
          "name": "values",
          "type": "uint256[]"
        }
      ],
      "name": "burnBatch",
      "outputs": [],
      "stateMutability": "nonpayable",
      "type": "function"
    },
    {
      "inputs": [
        {
          "internalType": "uint256",
          "name": "",
          "type": "uint256"
        }
      ],
      "name": "creators",
      "outputs": [
        {
          "internalType": "address",
          "name": "",
          "type": "address"
        }
      ],
      "stateMutability": "view",
      "type": "function",
      "constant": true
    },
    {
      "inputs": [
        {
          "internalType": "bytes32",
          "name": "role",
          "type": "bytes32"
        }
      ],
      "name": "getRoleAdmin",
      "outputs": [
        {
          "internalType": "bytes32",
          "name": "",
          "type": "bytes32"
        }
      ],
      "stateMutability": "view",
      "type": "function",
      "constant": true
    },
    {
      "inputs": [
        {
          "internalType": "bytes32",
          "name": "role",
          "type": "bytes32"
        },
        {
          "internalType": "uint256",
          "name": "index",
          "type": "uint256"
        }
      ],
      "name": "getRoleMember",
      "outputs": [
        {
          "internalType": "address",
          "name": "",
          "type": "address"
        }
      ],
      "stateMutability": "view",
      "type": "function",
      "constant": true
    },
    {
      "inputs": [
        {
          "internalType": "bytes32",
          "name": "role",
          "type": "bytes32"
        }
      ],
      "name": "getRoleMemberCount",
      "outputs": [
        {
          "internalType": "uint256",
          "name": "",
          "type": "uint256"
        }
      ],
      "stateMutability": "view",
      "type": "function",
      "constant": true
    },
    {
      "inputs": [
        {
          "internalType": "bytes32",
          "name": "role",
          "type": "bytes32"
        },
        {
          "internalType": "address",
          "name": "account",
          "type": "address"
        }
      ],
      "name": "grantRole",
      "outputs": [],
      "stateMutability": "nonpayable",
      "type": "function"
    },
    {
      "inputs": [
        {
          "internalType": "bytes32",
          "name": "role",
          "type": "bytes32"
        },
        {
          "internalType": "address",
          "name": "account",
          "type": "address"
        }
      ],
      "name": "hasRole",
      "outputs": [
        {
          "internalType": "bool",
          "name": "",
          "type": "bool"
        }
      ],
      "stateMutability": "view",
      "type": "function",
      "constant": true
    },
    {
      "inputs": [
        {
          "internalType": "address",
          "name": "account",
          "type": "address"
        },
        {
          "internalType": "address",
          "name": "operator",
          "type": "address"
        }
      ],
      "name": "isApprovedForAll",
      "outputs": [
        {
          "internalType": "bool",
          "name": "",
          "type": "bool"
        }
      ],
      "stateMutability": "view",
      "type": "function",
      "constant": true
    },
    {
      "inputs": [
        {
          "internalType": "address",
          "name": "_address",
          "type": "address"
        }
      ],
      "name": "isBlacklisted",
      "outputs": [
        {
          "internalType": "bool",
          "name": "",
          "type": "bool"
        }
      ],
      "stateMutability": "view",
      "type": "function",
      "constant": true
    },
    {
      "inputs": [
        {
          "internalType": "address",
          "name": "_address",
          "type": "address"
        }
      ],
      "name": "isWhitelisted",
      "outputs": [
        {
          "internalType": "bool",
          "name": "",
          "type": "bool"
        }
      ],
      "stateMutability": "view",
      "type": "function",
      "constant": true
    },
    {
      "inputs": [
        {
          "internalType": "address",
          "name": "to",
          "type": "address"
        },
        {
          "internalType": "uint256",
          "name": "id",
          "type": "uint256"
        },
        {
          "internalType": "uint256",
          "name": "amount",
          "type": "uint256"
        },
        {
          "internalType": "bytes",
          "name": "data",
          "type": "bytes"
        }
      ],
      "name": "mint",
      "outputs": [],
      "stateMutability": "nonpayable",
      "type": "function"
    },
    {
      "inputs": [
        {
          "internalType": "address",
          "name": "to",
          "type": "address"
        },
        {
          "internalType": "uint256[]",
          "name": "ids",
          "type": "uint256[]"
        },
        {
          "internalType": "uint256[]",
          "name": "amounts",
          "type": "uint256[]"
        },
        {
          "internalType": "bytes",
          "name": "data",
          "type": "bytes"
        }
      ],
      "name": "mintBatch",
      "outputs": [],
      "stateMutability": "nonpayable",
      "type": "function"
    },
    {
      "inputs": [],
      "name": "nonce",
      "outputs": [
        {
          "internalType": "uint256",
          "name": "",
          "type": "uint256"
        }
      ],
      "stateMutability": "view",
      "type": "function",
      "constant": true
    },
    {
      "inputs": [],
      "name": "owner",
      "outputs": [
        {
          "internalType": "address",
          "name": "",
          "type": "address"
        }
      ],
      "stateMutability": "view",
      "type": "function",
      "constant": true
    },
    {
      "inputs": [],
      "name": "pause",
      "outputs": [],
      "stateMutability": "nonpayable",
      "type": "function"
    },
    {
      "inputs": [],
      "name": "paused",
      "outputs": [
        {
          "internalType": "bool",
          "name": "",
          "type": "bool"
        }
      ],
      "stateMutability": "view",
      "type": "function",
      "constant": true
    },
    {
      "inputs": [
        {
          "internalType": "address",
          "name": "_address",
          "type": "address"
        }
      ],
      "name": "remove",
      "outputs": [],
      "stateMutability": "nonpayable",
      "type": "function"
    },
    {
      "inputs": [
        {
          "internalType": "address",
          "name": "_address",
          "type": "address"
        }
      ],
      "name": "removefromwh",
      "outputs": [],
      "stateMutability": "nonpayable",
      "type": "function"
    },
    {
      "inputs": [],
      "name": "renounceOwnership",
      "outputs": [],
      "stateMutability": "nonpayable",
      "type": "function"
    },
    {
      "inputs": [
        {
          "internalType": "bytes32",
          "name": "role",
          "type": "bytes32"
        },
        {
          "internalType": "address",
          "name": "account",
          "type": "address"
        }
      ],
      "name": "renounceRole",
      "outputs": [],
      "stateMutability": "nonpayable",
      "type": "function"
    },
    {
      "inputs": [
        {
          "internalType": "bytes32",
          "name": "role",
          "type": "bytes32"
        },
        {
          "internalType": "address",
          "name": "account",
          "type": "address"
        }
      ],
      "name": "revokeRole",
      "outputs": [],
      "stateMutability": "nonpayable",
      "type": "function"
    },
    {
      "inputs": [
        {
          "internalType": "address",
          "name": "operator",
          "type": "address"
        },
        {
          "internalType": "bool",
          "name": "approved",
          "type": "bool"
        }
      ],
      "name": "setApprovalForAll",
      "outputs": [],
      "stateMutability": "nonpayable",
      "type": "function"
    },
    {
      "inputs": [
        {
          "internalType": "uint256",
          "name": "",
          "type": "uint256"
        }
      ],
      "name": "tokenURI",
      "outputs": [
        {
          "internalType": "string",
          "name": "",
          "type": "string"
        }
      ],
      "stateMutability": "view",
      "type": "function",
      "constant": true
    },
    {
      "inputs": [
        {
          "internalType": "address",
          "name": "newOwner",
          "type": "address"
        }
      ],
      "name": "transferOwnership",
      "outputs": [],
      "stateMutability": "nonpayable",
      "type": "function"
    },
    {
      "inputs": [],
      "name": "unpause",
      "outputs": [],
      "stateMutability": "nonpayable",
      "type": "function"
    },
    {
      "inputs": [
        {
          "internalType": "uint256",
          "name": "",
          "type": "uint256"
        }
      ],
      "name": "uri",
      "outputs": [
        {
          "internalType": "string",
          "name": "",
          "type": "string"
        }
      ],
      "stateMutability": "view",
      "type": "function",
      "constant": true
    },
    {
      "inputs": [
        {
          "internalType": "string",
          "name": "_uri",
          "type": "string"
        }
      ],
      "name": "initialize",
      "outputs": [],
      "stateMutability": "nonpayable",
      "type": "function"
    },
    {
      "inputs": [
        {
          "internalType": "uint256",
          "name": "_id",
          "type": "uint256"
        },
        {
          "internalType": "string",
          "name": "_uri",
          "type": "string"
        }
      ],
      "name": "setURI",
      "outputs": [],
      "stateMutability": "nonpayable",
      "type": "function"
    },
    {
      "inputs": [
        {
          "internalType": "bytes4",
          "name": "interfaceId",
          "type": "bytes4"
        }
      ],
      "name": "supportsInterface",
      "outputs": [
        {
          "internalType": "bool",
          "name": "",
          "type": "bool"
        }
      ],
      "stateMutability": "view",
      "type": "function",
      "constant": true
    },
    {
      "inputs": [
        {
          "internalType": "address",
          "name": "_from",
          "type": "address"
        },
        {
          "internalType": "address",
          "name": "_to",
          "type": "address"
        },
        {
          "internalType": "uint256",
          "name": "id",
          "type": "uint256"
        },
        {
          "internalType": "uint256",
          "name": "amount",
          "type": "uint256"
        },
        {
          "internalType": "bytes",
          "name": "data",
          "type": "bytes"
        }
      ],
      "name": "safeTransferFrom",
      "outputs": [],
      "stateMutability": "nonpayable",
      "type": "function"
    },
    {
      "inputs": [
        {
          "internalType": "address",
          "name": "_from",
          "type": "address"
        },
        {
          "internalType": "address",
          "name": "_to",
          "type": "address"
        },
        {
          "internalType": "uint256[]",
          "name": "ids",
          "type": "uint256[]"
        },
        {
          "internalType": "uint256[]",
          "name": "amounts",
          "type": "uint256[]"
        },
        {
          "internalType": "bytes",
          "name": "data",
          "type": "bytes"
        }
      ],
      "name": "safeBatchTransferFrom",
      "outputs": [],
      "stateMutability": "nonpayable",
      "type": "function"
    }
  ],
  "bytecode": "0x608060405234801561001057600080fd5b50613863806100206000396000f3fe608060405234801561001057600080fd5b50600436106101cc5760003560e01c8062fdd58e146101d157806301ffc9a7146101f75780630e89341c1461021a5780631f7fdffa1461023a578063248a9ca31461024f57806329092d0e146102625780632eb2c2d6146102755780632f2ff15d1461028857806336568abe1461029b5780633af32abf146102ae5780633f4ba83a146102c15780634e1273f4146102c95780635c975abb146102e95780636b20c454146102f5578063715018a614610308578063731133e9146103105780638456cb5914610323578063862440e21461032b5780638da5cb5b1461033e5780639010d07c1461035357806391d1485414610366578063a217fddf14610379578063a22cb46514610381578063affed0e014610394578063c87b56dd1461039e578063ca15c873146103b1578063cccc9a92146103c4578063cd53d08e146103d7578063d539139314610401578063d547741f14610416578063d922354b14610429578063e63ab1e91461043c578063e82015ef14610451578063e985e9c514610464578063f242432a146104a0578063f2fde38b146104b3578063f5298aca146104c6578063f62d1888146104d9578063fe575a87146104ec575b600080fd5b6101e46101df36600461286d565b610519565b6040519081526020015b60405180910390f35b61020a6102053660046128ad565b6105b5565b60405190151581526020016101ee565b61022d6102283660046128ca565b6105c0565b6040516101ee9190612933565b61024d610248366004612a8f565b610654565b005b6101e461025d3660046128ca565b61069a565b61024d610270366004612b27565b6106af565b61024d610283366004612b42565b610728565b61024d610296366004612beb565b610884565b61024d6102a9366004612beb565b6108a6565b61020a6102bc366004612b27565b610924565b61024d610943565b6102dc6102d7366004612c17565b6109c3565b6040516101ee9190612d1c565b61015f5460ff1661020a565b61024d610303366004612d2f565b610aec565b61024d610b2f565b61024d61031e366004612da2565b610b68565b61024d610ba8565b61024d610339366004612df6565b610c24565b610346610ca9565b6040516101ee9190612e32565b610346610361366004612e46565b610cb8565b61020a610374366004612beb565b610cd7565b6101e4600081565b61024d61038f366004612e68565b610d02565b6101e46101fa5481565b61022d6103ac3660046128ca565b610d0d565b6101e46103bf3660046128ca565b610da8565b61024d6103d2366004612ea4565b610dbf565b6103466103e53660046128ca565b6101f9602052600090815260409020546001600160a01b031681565b6101e460008051602061380e83398151915281565b61024d610424366004612beb565b610ee9565b61024d610437366004612b27565b610f06565b6101e46000805160206137ee83398151915281565b61024d61045f366004612b27565b610f82565b61020a610472366004612ee7565b6001600160a01b03918216600090815260fc6020908152604080832093909416825291909152205460ff1690565b61024d6104ae366004612f11565b610ffb565b61024d6104c1366004612b27565b6111a8565b61024d6104d4366004612f75565b611248565b61024d6104e7366004612fa8565b61128b565b61020a6104fa366004612b27565b6001600160a01b031660009081526101f6602052604090205460ff1690565b60006001600160a01b03831661058a5760405162461bcd60e51b815260206004820152602b60248201527f455243313135353a2062616c616e636520717565727920666f7220746865207a60448201526a65726f206164647265737360a81b60648201526084015b60405180910390fd5b50600081815260fb602090815260408083206001600160a01b03861684529091529020545b92915050565b60006105af8261138c565b606060fd80546105cf90612fe4565b80601f01602080910402602001604051908101604052809291908181526020018280546105fb90612fe4565b80156106485780601f1061061d57610100808354040283529160200191610648565b820191906000526020600020905b81548152906001019060200180831161062b57829003601f168201915b50505050509050919050565b61066c60008051602061380e83398151915233610cd7565b6106885760405162461bcd60e51b81526004016105819061301e565b61069484848484611397565b50505050565b60009081526097602052604090206001015490565b336106b8610ca9565b6001600160a01b0316146106de5760405162461bcd60e51b815260040161058190613064565b6001600160a01b03811660008181526101f66020526040808220805460ff19169055517f2b6bf71b58b3583add364b3d9060ebf8019650f65f5be35f5464b9cb3e4ba2d49190a250565b61015f5460ff161561074c5760405162461bcd60e51b815260040161058190613099565b3360008181526101f6602052604090205460ff161561077d5760405162461bcd60e51b8152600401610581906130c3565b6001600160a01b03861660009081526101f66020526040902054869060ff16156107b95760405162461bcd60e51b8152600401610581906130c3565b6001600160a01b03861660009081526101f66020526040902054869060ff16156107f55760405162461bcd60e51b8152600401610581906130c3565b6107fe33610924565b156108285761080b610ca9565b6001600160a01b0316876001600160a01b03161461082857600080fd5b610830610ca9565b6001600160a01b0316876001600160a01b03161461086d5761085187610924565b61086d5760405162461bcd60e51b8152600401610581906130f3565b61087a88888888886114e7565b5050505050505050565b61088d8261069a565b6108978133611577565b6108a183836115db565b505050565b6001600160a01b03811633146109165760405162461bcd60e51b815260206004820152602f60248201527f416363657373436f6e74726f6c3a2063616e206f6e6c792072656e6f756e636560448201526e103937b632b9903337b91039b2b63360891b6064820152608401610581565b61092082826115fd565b5050565b6001600160a01b031660009081526101f5602052604090205460ff1690565b61095b6000805160206137ee83398151915233610cd7565b6109b95760405162461bcd60e51b815260206004820152603b60248201526000805160206137ae83398151915260448201527a686176652070617573657220726f6c6520746f20756e706175736560281b6064820152608401610581565b6109c161161f565b565b60608151835114610a285760405162461bcd60e51b815260206004820152602960248201527f455243313135353a206163636f756e747320616e6420696473206c656e677468604482015268040dad2e6dac2e8c6d60bb1b6064820152608401610581565b600083516001600160401b03811115610a4357610a43612946565b604051908082528060200260200182016040528015610a6c578160200160208202803683370190505b50905060005b8451811015610ae457610ab7858281518110610a9057610a9061315c565b6020026020010151858381518110610aaa57610aaa61315c565b6020026020010151610519565b828281518110610ac957610ac961315c565b6020908102919091010152610add81613188565b9050610a72565b509392505050565b6001600160a01b038316331480610b085750610b088333610472565b610b245760405162461bcd60e51b8152600401610581906131a1565b6108a18383836116ae565b33610b38610ca9565b6001600160a01b031614610b5e5760405162461bcd60e51b815260040161058190613064565b6109c1600061182d565b610b8060008051602061380e83398151915233610cd7565b610b9c5760405162461bcd60e51b81526004016105819061301e565b6106948484848461187f565b610bc06000805160206137ee83398151915233610cd7565b610c1c5760405162461bcd60e51b815260206004820152603960248201526000805160206137ae833981519152604482015278686176652070617573657220726f6c6520746f20706175736560381b6064820152608401610581565b6109c1611945565b33610c2d610ca9565b6001600160a01b031614610c535760405162461bcd60e51b815260040161058190613064565b60008281526101f760205260409020610c6c8282613230565b50817f6bb7ff708619ba0610cba295a58592e0451dee2622938c8755667688daf3529b82604051610c9d9190612933565b60405180910390a25050565b6033546001600160a01b031690565b600082815260c960205260408120610cd0908361199f565b9392505050565b60009182526097602090815260408084206001600160a01b0393909316845291905290205460ff1690565b6109203383836119ab565b6101f76020526000908152604090208054610d2790612fe4565b80601f0160208091040260200160405190810160405280929190818152602001828054610d5390612fe4565b8015610da05780601f10610d7557610100808354040283529160200191610da0565b820191906000526020600020905b815481529060010190602001808311610d8357829003601f168201915b505050505081565b600081815260c9602052604081206105af90611a8b565b33610dc8610ca9565b6001600160a01b031614610dee5760405162461bcd60e51b815260040161058190613064565b6001600160a01b03821660009081526101f660205260408120805460ff191660011790555b8151811015610eb057610e6533838381518110610e3257610e3261315c565b6020026020010151610e5086868681518110610aaa57610aaa61315c565b6040518060200160405280600081525061187f565b610e9e83838381518110610e7b57610e7b61315c565b6020026020010151610e9986868681518110610aaa57610aaa61315c565b611a95565b80610ea881613188565b915050610e13565b506040516001600160a01b038316907ff9b68063b051b82957fa193585681240904fed808db8b30fc5a2d2202c6ed62790600090a25050565b610ef28261069a565b610efc8133611577565b6108a183836115fd565b33610f0f610ca9565b6001600160a01b031614610f355760405162461bcd60e51b815260040161058190613064565b6001600160a01b03811660008181526101f56020526040808220805460ff19166001179055517fa850ae9193f515cbae8d35e8925bd2be26627fc91bce650b8652ed254e9cab039190a250565b33610f8b610ca9565b6001600160a01b031614610fb15760405162461bcd60e51b815260040161058190613064565b6001600160a01b03811660008181526101f56020526040808220805460ff19169055517fcdd2e9b91a56913d370075169cefa1602ba36be5301664f752192bb1709df7579190a250565b61015f5460ff161561101f5760405162461bcd60e51b815260040161058190613099565b3360008181526101f6602052604090205460ff16156110505760405162461bcd60e51b8152600401610581906130c3565b6001600160a01b03861660009081526101f66020526040902054869060ff161561108c5760405162461bcd60e51b8152600401610581906130c3565b6001600160a01b03861660009081526101f66020526040902054869060ff16156110c85760405162461bcd60e51b8152600401610581906130c3565b6110d133610924565b15611156576110de610ca9565b6001600160a01b0316876001600160a01b0316146111565760405162461bcd60e51b815260206004820152602f60248201527f5472616e73666572206f6620746f6b656e7320697320616c6c6f776564204f4e60448201526e262c903a37903a34329037bbb732b960891b6064820152608401610581565b61115e610ca9565b6001600160a01b0316876001600160a01b03161461119b5761117f87610924565b61119b5760405162461bcd60e51b8152600401610581906130f3565b61087a8888888888611b88565b336111b1610ca9565b6001600160a01b0316146111d75760405162461bcd60e51b815260040161058190613064565b6001600160a01b03811661123c5760405162461bcd60e51b815260206004820152602660248201527f4f776e61626c653a206e6577206f776e657220697320746865207a65726f206160448201526564647265737360d01b6064820152608401610581565b6112458161182d565b50565b6001600160a01b03831633148061126457506112648333610472565b6112805760405162461bcd60e51b8152600401610581906131a1565b6108a1838383611a95565b600054610100900460ff166112a65760005460ff16156112aa565b303b155b61130d5760405162461bcd60e51b815260206004820152602e60248201527f496e697469616c697a61626c653a20636f6e747261637420697320616c72656160448201526d191e481a5b9a5d1a585b1a5e995960921b6064820152608401610581565b600054610100900460ff1615801561132f576000805461ffff19166101011790555b611337611bcd565b61134082611c04565b611348611c44565b611350611c73565b61135982611ca3565b6113773360016103e76040518060200160405280600081525061187f565b8015610920576000805461ff00191690555050565b60006105af82611d14565b6001600160a01b0384166113bd5760405162461bcd60e51b8152600401610581906132ef565b81518351146113de5760405162461bcd60e51b815260040161058190613330565b336113ee81600087878787611d54565b60005b845181101561148a5783818151811061140c5761140c61315c565b602002602001015160fb600087848151811061142a5761142a61315c565b602002602001015181526020019081526020016000206000886001600160a01b03166001600160a01b0316815260200190815260200160002060008282546114729190613378565b9091555081905061148281613188565b9150506113f1565b50846001600160a01b031660006001600160a01b0316826001600160a01b031660008051602061378e83398151915287876040516114c992919061338b565b60405180910390a46114e081600087878787611d6a565b5050505050565b6001600160a01b03851633148061150357506115038533610472565b61156a5760405162461bcd60e51b815260206004820152603260248201527f455243313135353a207472616e736665722063616c6c6572206973206e6f74206044820152711bdddb995c881b9bdc88185c1c1c9bdd995960721b6064820152608401610581565b6114e08585858585611ece565b6115818282610cd7565b61092057611599816001600160a01b03166014612061565b6115a4836020612061565b6040516020016115b59291906133b9565b60408051601f198184030181529082905262461bcd60e51b825261058191600401612933565b6115e582826121fc565b600082815260c9602052604090206108a19082612282565b6116078282612297565b600082815260c9602052604090206108a190826122fe565b61015f5460ff166116695760405162461bcd60e51b815260206004820152601460248201527314185d5cd8589b194e881b9bdd081c185d5cd95960621b6044820152606401610581565b61015f805460ff191690557f5db9ee0a495bf2e6ff9c91a7834c1ba4fdd244a5e8aa4e537bd38aeae4b073aa335b6040516116a49190612e32565b60405180910390a1565b6001600160a01b0383166116d45760405162461bcd60e51b815260040161058190613428565b80518251146116f55760405162461bcd60e51b815260040161058190613330565b600033905061171881856000868660405180602001604052806000815250611d54565b60005b83518110156117e05760008482815181106117385761173861315c565b6020026020010151905060008483815181106117565761175661315c565b602090810291909101810151600084815260fb835260408082206001600160a01b038c1683529093529190912054909150818110156117a75760405162461bcd60e51b81526004016105819061346b565b600092835260fb602090815260408085206001600160a01b038b16865290915290922091039055806117d881613188565b91505061171b565b5060006001600160a01b0316846001600160a01b0316826001600160a01b031660008051602061378e833981519152868660405161181f92919061338b565b60405180910390a450505050565b603380546001600160a01b038381166001600160a01b0319831681179093556040519116919082907f8be0079c531659141344cd1fd0a4f28419497f9722a3daafe3b4186f6b6457e090600090a35050565b6001600160a01b0384166118a55760405162461bcd60e51b8152600401610581906132ef565b336118c5816000876118b688612313565b6118bf88612313565b87611d54565b600084815260fb602090815260408083206001600160a01b0389168452909152812080548592906118f7908490613378565b909155505060408051858152602081018590526001600160a01b0380881692600092918516916000805160206137ce833981519152910160405180910390a46114e08160008787878761235e565b61015f5460ff16156119695760405162461bcd60e51b815260040161058190613099565b61015f805460ff191660011790557f62e78cea01bee320cd4e420270b5ea74000d11b0c9f74754ebdbfc544b05a2586116973390565b6000610cd08383612419565b816001600160a01b0316836001600160a01b031603611a1e5760405162461bcd60e51b815260206004820152602960248201527f455243313135353a2073657474696e6720617070726f76616c20737461747573604482015268103337b91039b2b63360b91b6064820152608401610581565b6001600160a01b03838116600081815260fc6020908152604080832094871680845294825291829020805460ff191686151590811790915591519182527f17307eab39ab6107e8899845ad3d59bd9653f200f220920489ca2b5937696c31910160405180910390a3505050565b60006105af825490565b6001600160a01b038316611abb5760405162461bcd60e51b815260040161058190613428565b33611aea81856000611acc87612313565b611ad587612313565b60405180602001604052806000815250611d54565b600083815260fb602090815260408083206001600160a01b038816845290915290205482811015611b2d5760405162461bcd60e51b81526004016105819061346b565b600084815260fb602090815260408083206001600160a01b03898116808652918452828520888703905582518981529384018890529092908616916000805160206137ce833981519152910160405180910390a45050505050565b6001600160a01b038516331480611ba45750611ba48533610472565b611bc05760405162461bcd60e51b8152600401610581906131a1565b6114e08585858585612443565b600054610100900460ff16611bf45760405162461bcd60e51b8152600401610581906134af565b611bfc611c44565b6109c1611c73565b600054610100900460ff16611c2b5760405162461bcd60e51b8152600401610581906134af565b611c33611c44565b611c3b611c73565b61124581611ca3565b600054610100900460ff16611c6b5760405162461bcd60e51b8152600401610581906134af565b611bfc612549565b600054610100900460ff16611c9a5760405162461bcd60e51b8152600401610581906134af565b6109c13361182d565b600054610100900460ff16611cca5760405162461bcd60e51b8152600401610581906134af565b611cd2612549565b611cda612549565b611ce2612549565b611cea612549565b611cf381612570565b611cfb612549565b611d036125a0565b611d0b612549565b611245816125d4565b60006001600160e01b03198216636cdb3d1360e11b1480611d4557506001600160e01b031982166303a24d0760e21b145b806105af57506105af82612636565b611d6286868686868661265b565b505050505050565b6001600160a01b0384163b15611d625760405163bc197c8160e01b81526001600160a01b0385169063bc197c8190611dae90899089908890889088906004016134fa565b6020604051808303816000875af1925050508015611de9575060408051601f3d908101601f19168201909252611de691810190613558565b60015b611e9557611df5613575565b806308c379a003611e2e5750611e09613591565b80611e145750611e30565b8060405162461bcd60e51b81526004016105819190612933565b505b60405162461bcd60e51b815260206004820152603460248201527f455243313135353a207472616e7366657220746f206e6f6e20455243313135356044820152732932b1b2b4bb32b91034b6b83632b6b2b73a32b960611b6064820152608401610581565b6001600160e01b0319811663bc197c8160e01b14611ec55760405162461bcd60e51b81526004016105819061361a565b50505050505050565b8151835114611eef5760405162461bcd60e51b815260040161058190613330565b6001600160a01b038416611f155760405162461bcd60e51b815260040161058190613662565b33611f24818787878787611d54565b60005b845181101561200d576000858281518110611f4457611f4461315c565b602002602001015190506000858381518110611f6257611f6261315c565b602090810291909101810151600084815260fb835260408082206001600160a01b038e168352909352919091205490915081811015611fb35760405162461bcd60e51b8152600401610581906136a7565b600083815260fb602090815260408083206001600160a01b038e8116855292528083208585039055908b16825281208054849290611ff2908490613378565b925050819055505050508061200690613188565b9050611f27565b50846001600160a01b0316866001600160a01b0316826001600160a01b031660008051602061378e833981519152878760405161204b92919061338b565b60405180910390a4611d62818787878787611d6a565b606060006120708360026136f1565b61207b906002613378565b6001600160401b0381111561209257612092612946565b6040519080825280601f01601f1916602001820160405280156120bc576020820181803683370190505b509050600360fc1b816000815181106120d7576120d761315c565b60200101906001600160f81b031916908160001a905350600f60fb1b816001815181106121065761210661315c565b60200101906001600160f81b031916908160001a905350600061212a8460026136f1565b612135906001613378565b90505b60018111156121ad576f181899199a1a9b1b9c1cb0b131b232b360811b85600f16601081106121695761216961315c565b1a60f81b82828151811061217f5761217f61315c565b60200101906001600160f81b031916908160001a90535060049490941c936121a681613708565b9050612138565b508315610cd05760405162461bcd60e51b815260206004820181905260248201527f537472696e67733a20686578206c656e67746820696e73756666696369656e746044820152606401610581565b6122068282610cd7565b6109205760008281526097602090815260408083206001600160a01b03851684529091529020805460ff1916600117905561223e3390565b6001600160a01b0316816001600160a01b0316837f2f8788117e7eff1d82e926ec794901d17c78024a50270940304540a733656f0d60405160405180910390a45050565b6000610cd0836001600160a01b0384166126c4565b6122a18282610cd7565b156109205760008281526097602090815260408083206001600160a01b0385168085529252808320805460ff1916905551339285917ff6391f5c32d9c69d2a47ea670b442974b53935d1edc7fd64eb21e047a839171b9190a45050565b6000610cd0836001600160a01b038416612713565b6040805160018082528183019092526060916000919060208083019080368337019050509050828160008151811061234d5761234d61315c565b602090810291909101015292915050565b6001600160a01b0384163b15611d625760405163f23a6e6160e01b81526001600160a01b0385169063f23a6e61906123a2908990899088908890889060040161371f565b6020604051808303816000875af19250505080156123dd575060408051601f3d908101601f191682019092526123da91810190613558565b60015b6123e957611df5613575565b6001600160e01b0319811663f23a6e6160e01b14611ec55760405162461bcd60e51b81526004016105819061361a565b60008260000182815481106124305761243061315c565b9060005260206000200154905092915050565b6001600160a01b0384166124695760405162461bcd60e51b815260040161058190613662565b336124798187876118b688612313565b600084815260fb602090815260408083206001600160a01b038a168452909152902054838110156124bc5760405162461bcd60e51b8152600401610581906136a7565b600085815260fb602090815260408083206001600160a01b038b81168552925280832087850390559088168252812080548692906124fb908490613378565b909155505060408051868152602081018690526001600160a01b03808916928a821692918616916000805160206137ce833981519152910160405180910390a4611ec582888888888861235e565b600054610100900460ff166109c15760405162461bcd60e51b8152600401610581906134af565b600054610100900460ff166125975760405162461bcd60e51b8152600401610581906134af565b61124581612806565b600054610100900460ff166125c75760405162461bcd60e51b8152600401610581906134af565b61015f805460ff19169055565b600054610100900460ff166125fb5760405162461bcd60e51b8152600401610581906134af565b612606600033612812565b61261e60008051602061380e83398151915233612812565b6112456000805160206137ee83398151915233612812565b60006001600160e01b03198216635a05180f60e01b14806105af57506105af8261281c565b61015f5460ff1615611d625760405162461bcd60e51b815260206004820152602c60248201527f455243313135355061757361626c653a20746f6b656e207472616e736665722060448201526b1dda1a5b19481c185d5cd95960a21b6064820152608401610581565b600081815260018301602052604081205461270b575081546001818101845560008481526020808220909301849055845484825282860190935260409020919091556105af565b5060006105af565b600081815260018301602052604081205480156127fc576000612737600183613764565b855490915060009061274b90600190613764565b90508181146127b057600086600001828154811061276b5761276b61315c565b906000526020600020015490508087600001848154811061278e5761278e61315c565b6000918252602080832090910192909255918252600188019052604090208390555b85548690806127c1576127c1613777565b6001900381819060005260206000200160009055905585600101600086815260200190815260200160002060009055600193505050506105af565b60009150506105af565b60fd6109208282613230565b61092082826115db565b60006001600160e01b03198216637965db0b60e01b14806105af57506301ffc9a760e01b6001600160e01b03198316146105af565b80356001600160a01b038116811461286857600080fd5b919050565b6000806040838503121561288057600080fd5b61288983612851565b946020939093013593505050565b6001600160e01b03198116811461124557600080fd5b6000602082840312156128bf57600080fd5b8135610cd081612897565b6000602082840312156128dc57600080fd5b5035919050565b60005b838110156128fe5781810151838201526020016128e6565b50506000910152565b6000815180845261291f8160208601602086016128e3565b601f01601f19169290920160200192915050565b602081526000610cd06020830184612907565b634e487b7160e01b600052604160045260246000fd5b601f8201601f191681016001600160401b038111828210171561298157612981612946565b6040525050565b60006001600160401b038211156129a1576129a1612946565b5060051b60200190565b600082601f8301126129bc57600080fd5b813560206129c982612988565b6040516129d6828261295c565b83815260059390931b85018201928281019150868411156129f657600080fd5b8286015b84811015612a1157803583529183019183016129fa565b509695505050505050565b600082601f830112612a2d57600080fd5b81356001600160401b03811115612a4657612a46612946565b604051612a5d601f8301601f19166020018261295c565b818152846020838601011115612a7257600080fd5b816020850160208301376000918101602001919091529392505050565b60008060008060808587031215612aa557600080fd5b612aae85612851565b935060208501356001600160401b0380821115612aca57600080fd5b612ad6888389016129ab565b94506040870135915080821115612aec57600080fd5b612af8888389016129ab565b93506060870135915080821115612b0e57600080fd5b50612b1b87828801612a1c565b91505092959194509250565b600060208284031215612b3957600080fd5b610cd082612851565b600080600080600060a08688031215612b5a57600080fd5b612b6386612851565b9450612b7160208701612851565b935060408601356001600160401b0380821115612b8d57600080fd5b612b9989838a016129ab565b94506060880135915080821115612baf57600080fd5b612bbb89838a016129ab565b93506080880135915080821115612bd157600080fd5b50612bde88828901612a1c565b9150509295509295909350565b60008060408385031215612bfe57600080fd5b82359150612c0e60208401612851565b90509250929050565b60008060408385031215612c2a57600080fd5b82356001600160401b0380821115612c4157600080fd5b818501915085601f830112612c5557600080fd5b81356020612c6282612988565b604051612c6f828261295c565b83815260059390931b8501820192828101915089841115612c8f57600080fd5b948201945b83861015612cb457612ca586612851565b82529482019490820190612c94565b96505086013592505080821115612cca57600080fd5b50612cd7858286016129ab565b9150509250929050565b600081518084526020808501945080840160005b83811015612d1157815187529582019590820190600101612cf5565b509495945050505050565b602081526000610cd06020830184612ce1565b600080600060608486031215612d4457600080fd5b612d4d84612851565b925060208401356001600160401b0380821115612d6957600080fd5b612d75878388016129ab565b93506040860135915080821115612d8b57600080fd5b50612d98868287016129ab565b9150509250925092565b60008060008060808587031215612db857600080fd5b612dc185612851565b9350602085013592506040850135915060608501356001600160401b03811115612dea57600080fd5b612b1b87828801612a1c565b60008060408385031215612e0957600080fd5b8235915060208301356001600160401b03811115612e2657600080fd5b612cd785828601612a1c565b6001600160a01b0391909116815260200190565b60008060408385031215612e5957600080fd5b50508035926020909101359150565b60008060408385031215612e7b57600080fd5b612e8483612851565b915060208301358015158114612e9957600080fd5b809150509250929050565b60008060408385031215612eb757600080fd5b612ec083612851565b915060208301356001600160401b03811115612edb57600080fd5b612cd7858286016129ab565b60008060408385031215612efa57600080fd5b612f0383612851565b9150612c0e60208401612851565b600080600080600060a08688031215612f2957600080fd5b612f3286612851565b9450612f4060208701612851565b9350604086013592506060860135915060808601356001600160401b03811115612f6957600080fd5b612bde88828901612a1c565b600080600060608486031215612f8a57600080fd5b612f9384612851565b95602085013595506040909401359392505050565b600060208284031215612fba57600080fd5b81356001600160401b03811115612fd057600080fd5b612fdc84828501612a1c565b949350505050565b600181811c90821680612ff857607f821691505b60208210810361301857634e487b7160e01b600052602260045260246000fd5b50919050565b60208082526038908201526000805160206137ae8339815191526040820152771a185d99481b5a5b9d195c881c9bdb19481d1bc81b5a5b9d60421b606082015260800190565b6020808252818101527f4f776e61626c653a2063616c6c6572206973206e6f7420746865206f776e6572604082015260600190565b60208082526010908201526f14185d5cd8589b194e881c185d5cd95960821b604082015260600190565b6020808252601690820152751858d8dbdd5b9d081a5cc8189b1858dadb1a5cdd195960521b604082015260600190565b60208082526043908201527f5472616e73666572206f6620746f6b656e732063616e206265206d616465206260408201527f79204f574e455220746f204f4e4c592077686974656c6973746564206164647260608201526265737360e81b608082015260a00190565b634e487b7160e01b600052603260045260246000fd5b634e487b7160e01b600052601160045260246000fd5b60006001820161319a5761319a613172565b5060010190565b60208082526029908201527f455243313135353a2063616c6c6572206973206e6f74206f776e6572206e6f7260408201526808185c1c1c9bdd995960ba1b606082015260800190565b601f8211156108a157600081815260208120601f850160051c810160208610156132115750805b601f850160051c820191505b81811015611d625782815560010161321d565b81516001600160401b0381111561324957613249612946565b61325d816132578454612fe4565b846131ea565b602080601f831160018114613292576000841561327a5750858301515b600019600386901b1c1916600185901b178555611d62565b600085815260208120601f198616915b828110156132c1578886015182559484019460019091019084016132a2565b50858210156132df5787850151600019600388901b60f8161c191681555b5050505050600190811b01905550565b60208082526021908201527f455243313135353a206d696e7420746f20746865207a65726f206164647265736040820152607360f81b606082015260800190565b60208082526028908201527f455243313135353a2069647320616e6420616d6f756e7473206c656e677468206040820152670dad2e6dac2e8c6d60c31b606082015260800190565b808201808211156105af576105af613172565b60408152600061339e6040830185612ce1565b82810360208401526133b08185612ce1565b95945050505050565b76020b1b1b2b9b9a1b7b73a3937b61d1030b1b1b7bab73a1604d1b8152600083516133eb8160178501602088016128e3565b7001034b99036b4b9b9b4b733903937b6329607d1b601791840191820152835161341c8160288401602088016128e3565b01602801949350505050565b60208082526023908201527f455243313135353a206275726e2066726f6d20746865207a65726f206164647260408201526265737360e81b606082015260800190565b60208082526024908201527f455243313135353a206275726e20616d6f756e7420657863656564732062616c604082015263616e636560e01b606082015260800190565b6020808252602b908201527f496e697469616c697a61626c653a20636f6e7472616374206973206e6f74206960408201526a6e697469616c697a696e6760a81b606082015260800190565b6001600160a01b0386811682528516602082015260a06040820181905260009061352690830186612ce1565b82810360608401526135388186612ce1565b9050828103608084015261354c8185612907565b98975050505050505050565b60006020828403121561356a57600080fd5b8151610cd081612897565b600060033d111561358e5760046000803e5060005160e01c5b90565b600060443d101561359f5790565b6040516003193d81016004833e81513d6001600160401b0380831160248401831017156135ce57505050505090565b82850191508151818111156135e65750505050505090565b843d87010160208285010111156136005750505050505090565b61360f6020828601018761295c565b509095945050505050565b60208082526028908201527f455243313135353a204552433131353552656365697665722072656a656374656040820152676420746f6b656e7360c01b606082015260800190565b60208082526025908201527f455243313135353a207472616e7366657220746f20746865207a65726f206164604082015264647265737360d81b606082015260800190565b6020808252602a908201527f455243313135353a20696e73756666696369656e742062616c616e636520666f60408201526939103a3930b739b332b960b11b606082015260800190565b80820281158282048414176105af576105af613172565b60008161371757613717613172565b506000190190565b6001600160a01b03868116825285166020820152604081018490526060810183905260a06080820181905260009061375990830184612907565b979650505050505050565b818103818111156105af576105af613172565b634e487b7160e01b600052603160045260246000fdfe4a39dc06d4c0dbc64b70af90fd698a233a518aa5d07e595d983b8c0526c8f7fb455243313135355072657365744d696e7465725061757365723a206d75737420c3d58168c5ae7397731d063d5bbf3d657854427343f4c083240f7aacaa2d0f6265d7a28e3265b37a6474929f336521b332c1681b933f6cb9f3376673440d862a9f2df0fed2c77648de5860a4cc508cd0818c85b8b8a1ab4ceeef8d981c8956a6a26469706673582212202996e493df717b4ae9d5ae83cffa32f7ea288f4cbb05a81900cf5957f09ab0b964736f6c63430008110033",
  "immutableReferences": {},
  "source": "// SPDX-License-Identifier: MIT\r\n\r\n/*\r\n ______     ______   _        _______  _______  _        _______ \r\n/ ___  \\   (  ___ \\ ( \\      (  ___  )(  ____ \\| \\    /\\(  ____ \\\r\n\\/   \\  \\  | (   ) )| (      | (   ) || (    \\/|  \\  / /| (    \\/\r\n   ___) /  | (__/ / | |      | |   | || |      |  (_/ / | (_____ \r\n  (___ (   |  __ (  | |      | |   | || |      |   _ (  (_____  )\r\n      ) \\  | (  \\ \\ | |      | |   | || |      |  ( \\ \\       ) |\r\n/\\___/  /  | )___) )| (____/\\| (___) || (____/\\|  /  \\ \\/\\____) |\r\n\\______/   |/ \\___/ (_______/(_______)(_______/|_/    \\/\\_______)\r\n\r\n*/\r\n\r\npragma solidity ^0.8.0;\r\nimport \"@openzeppelin/contracts-upgradeable/proxy/utils/Initializable.sol\";\r\nimport \"@openzeppelin/contracts-upgradeable/utils/StringsUpgradeable.sol\";\r\nimport \"@openzeppelin/contracts-upgradeable/access/OwnableUpgradeable.sol\";\r\nimport \"@openzeppelin/contracts-upgradeable/token/ERC1155/presets/ERC1155PresetMinterPauserUpgradeable.sol\";\r\nimport \"./Whitelist.sol\";\r\nimport \"./Blacklistv2.sol\";\r\nimport \"./ExternalLibraries.sol\";\r\n\r\ncontract Tkn3blksNFTv6 is Initializable, OwnableUpgradeable, ERC1155PresetMinterPauserUpgradeable, Whitelist, Blacklistv2 {\r\n  using SafeMath for uint256;\r\n  mapping(uint => string) public tokenURI;\r\n  mapping(uint256 => mapping(address => uint256)) private _balances;\r\n   // id => creators\r\n  mapping (uint256 => address) public creators;\r\n\r\n    // A nonce to ensure we have a unique id each time we mint.\r\n    uint256 public nonce;\r\n\r\n  // modifier onlyOwner() virtual override {\r\n  //      require(owner() == _msgSender(), \"Ownable: caller is not the owner\");\r\n  //       _;\r\n  //   }\r\n\r\n  // modifier creatorOnly(uint256 _id) {\r\n  //      require(creators[_id] == msg.sender);\r\n  //       _;\r\n  //   }\r\n  \r\n function initialize(string memory _uri) public virtual override initializer ()\r\n        { \r\n            __Whitelist_init();\r\n            __Blacklistv2_init(_uri);\r\n            __Ownable_init();\r\n            __Ownable_init_unchained();\r\n            __ERC1155PresetMinterPauser_init(_uri);\r\n            _mint(msg.sender,1,999,\"\");\r\n         }\r\n\r\nfunction setURI(uint _id, string memory _uri) external onlyOwner {\r\n    tokenURI[_id] = _uri;\r\n    emit URI(_uri, _id);\r\n  }\r\n\r\n  function supportsInterface(bytes4 interfaceId) public view virtual override(\r\n    ERC1155PresetMinterPauserUpgradeable) returns (bool) {\r\n    return(ERC1155PresetMinterPauserUpgradeable.supportsInterface(interfaceId));\r\n  }\r\n\r\n function safeTransferFrom(address _from, address _to, uint256 id, uint256 amount, bytes memory data) whenNotPaused()  notBlacklisted(msg.sender) \r\n        notBlacklisted(_from) notBlacklisted(_to) public virtual override \r\n  {\r\n\r\n        if(isWhitelisted(msg.sender)){\r\n          require(_to == owner(), 'Transfer of tokens is allowed ONLY to the owner');\r\n        }\r\n\r\n        if(_to != owner()){\r\n          require(isWhitelisted(_to),'Transfer of tokens can be made by OWNER to ONLY whitelisted address');\r\n        }\r\n        return super.safeTransferFrom(_from, _to, id, amount, data);\r\n  }\r\n   \r\n  function safeBatchTransferFrom(address _from, address _to, uint256[] memory ids,uint256[] memory amounts, bytes memory data) whenNotPaused() \r\n           notBlacklisted(msg.sender) notBlacklisted(_from) notBlacklisted(_to) public virtual override\r\n  {\r\n      \r\n        if(isWhitelisted(msg.sender)){\r\n          require(_to == owner());\r\n        }\r\n\r\n        if(_to != owner()){\r\n          require(isWhitelisted(_to),'Transfer of tokens can be made by OWNER to ONLY whitelisted address');\r\n        }\r\n        return super.safeBatchTransferFrom(_from, _to, ids, amounts, data);\r\n  }\r\n}",
  "sourcePath": "/codebuild/output/src082/src/s3/00/contracts/polygon/Tkn3blksNFTv6.sol",
  "compiler": {
    "name": "solc",
    "version": "0.8.17+commit.8df45f5f.Emscripten.clang"
  },
  "schemaVersion": "3.4.10",
  "updatedAt": "2022-11-02T09:53:30.903Z",
  "networkType": "ethereum",
  "devdoc": {
    "kind": "dev",
    "methods": {
      "balanceOf(address,uint256)": {
        "details": "See {IERC1155-balanceOf}. Requirements: - `account` cannot be the zero address."
      },
      "balanceOfBatch(address[],uint256[])": {
        "details": "See {IERC1155-balanceOfBatch}. Requirements: - `accounts` and `ids` must have the same length."
      },
      "getRoleAdmin(bytes32)": {
        "details": "Returns the admin role that controls `role`. See {grantRole} and {revokeRole}. To change a role's admin, use {_setRoleAdmin}."
      },
      "getRoleMember(bytes32,uint256)": {
        "details": "Returns one of the accounts that have `role`. `index` must be a value between 0 and {getRoleMemberCount}, non-inclusive. Role bearers are not sorted in any particular way, and their ordering may change at any point. WARNING: When using {getRoleMember} and {getRoleMemberCount}, make sure you perform all queries on the same block. See the following https://forum.openzeppelin.com/t/iterating-over-elements-on-enumerableset-in-openzeppelin-contracts/2296[forum post] for more information."
      },
      "getRoleMemberCount(bytes32)": {
        "details": "Returns the number of accounts that have `role`. Can be used together with {getRoleMember} to enumerate all bearers of a role."
      },
      "grantRole(bytes32,address)": {
        "details": "Grants `role` to `account`. If `account` had not been already granted `role`, emits a {RoleGranted} event. Requirements: - the caller must have ``role``'s admin role."
      },
      "hasRole(bytes32,address)": {
        "details": "Returns `true` if `account` has been granted `role`."
      },
      "isApprovedForAll(address,address)": {
        "details": "See {IERC1155-isApprovedForAll}."
      },
      "mint(address,uint256,uint256,bytes)": {
        "details": "Creates `amount` new tokens for `to`, of token type `id`. See {ERC1155-_mint}. Requirements: - the caller must have the `MINTER_ROLE`."
      },
      "mintBatch(address,uint256[],uint256[],bytes)": {
        "details": "xref:ROOT:erc1155.adoc#batch-operations[Batched] variant of {mint}."
      },
      "owner()": {
        "details": "Returns the address of the current owner."
      },
      "pause()": {
        "details": "Pauses all token transfers. See {ERC1155Pausable} and {Pausable-_pause}. Requirements: - the caller must have the `PAUSER_ROLE`."
      },
      "paused()": {
        "details": "Returns true if the contract is paused, and false otherwise."
      },
      "renounceOwnership()": {
        "details": "Leaves the contract without owner. It will not be possible to call `onlyOwner` functions anymore. Can only be called by the current owner. NOTE: Renouncing ownership will leave the contract without an owner, thereby removing any functionality that is only available to the owner."
      },
      "renounceRole(bytes32,address)": {
        "details": "Revokes `role` from the calling account. Roles are often managed via {grantRole} and {revokeRole}: this function's purpose is to provide a mechanism for accounts to lose their privileges if they are compromised (such as when a trusted device is misplaced). If the calling account had been revoked `role`, emits a {RoleRevoked} event. Requirements: - the caller must be `account`."
      },
      "revokeRole(bytes32,address)": {
        "details": "Revokes `role` from `account`. If `account` had been granted `role`, emits a {RoleRevoked} event. Requirements: - the caller must have ``role``'s admin role."
      },
      "setApprovalForAll(address,bool)": {
        "details": "See {IERC1155-setApprovalForAll}."
      },
      "supportsInterface(bytes4)": {
        "details": "See {IERC165-supportsInterface}."
      },
      "transferOwnership(address)": {
        "details": "Transfers ownership of the contract to a new account (`newOwner`). Can only be called by the current owner."
      },
      "unpause()": {
        "details": "Unpauses all token transfers. See {ERC1155Pausable} and {Pausable-_unpause}. Requirements: - the caller must have the `PAUSER_ROLE`."
      },
      "uri(uint256)": {
        "details": "See {IERC1155MetadataURI-uri}. This implementation returns the same URI for *all* token types. It relies on the token type ID substitution mechanism https://eips.ethereum.org/EIPS/eip-1155#metadata[defined in the EIP]. Clients calling this function must replace the `\\{id\\}` substring with the actual token type ID."
      }
    },
    "version": 1
  },
  "userdoc": {
    "kind": "user",
    "methods": {},
    "version": 1
  }
}